:030000000208945F
:0C089400787FE4F6D8FD75810D020800A5
:1008000075A0A0E4F580F5A075A080F580F5A07531
:10081000A0C07580FFF5A075A0E0F580F5A0F50DEE
:10082000F50CF589758CFC758A66758D4CF58AC258
:0F0830008DC28FD28CD28ED2A9D2ABD2AF80FE26
:03000B0002083FA9
:10083F00C0E0C0D0E509B4E819E508B403147508A1
:10084F0000750900630CFF75A080850C8075A000F2
:0F085F0080080509E50970020508D0D0D0E03205
:03001B0002086E6A
:10086E00C0E0E50B6404450A7011F50AF50B630D43
:10087E00FF75A0E0850D80F5A08008050BE50B70D7
:06088E0002050AD0E03271
:00000001FF
