:030000000203BD3B
:0C03BD00787FE4F6D8FD75814702040447
:10067D00D2A1D2A000000000000000000000000088
:10068D0000000000000000000000000000C2A100FA
:10069D00000000000000000000000000000000004D
:0B06AD000000000000000000C2A022BE
:10079C00C2A1D2A000000000000000000000000078
:1007AC0000000000000000000000000000D2A122A8
:1004C900300104C2A18002D2A10000000000000096
:1004D9000000000000000000000000000000000013
:1004E9000000D2A000000000000000000000000091
:1004F90000000000000000000000000000C2A0D2BF
:10050900A100000000000000000000000000000041
:0B0519000000000000000000000022B5
:1005B600D2A10000000000000000000000000000C2
:1005C6000000000000000000000000D2A0000000B3
:1005D6000000000000000000000000000000000015
:1005E60000000000000030A107C2A012079CC32231
:0405F600C2A0D322AA
:10052400E4FEEF30E704D2A18002C2A10000000083
:1005340000000000000000000000000000000000B7
:100544000000000000D2A0EF25E0FF000000000042
:100554000000000000000000000000000000000097
:0A05640000000000C2A00EBE08B89F
:01056E00226A
:10056F00E4FED2A000000000000000000000000028
:10057F0000000000000000000000000000EF25E078
:10058F00FF30A103430701C2A000000000000000DC
:10059F00000000000000000000000000000000004C
:0605AF0000000EBE08BCB6
:0105B5002223
:04077A007F057E0079
:10077E00EF1FAA0670011E4A6013E4FCFDC3ED9440
:0D078E0004EC940050EA0DBD00010C80F059
:01079B00223B
:0207BC00A9078B
:1007BE00E4FBC294E913929412077AD294E9C3131C
:0C07CE00F90BBB08ED7F057E0002077EE2
:1007DA00E4FBC294E9C313F9D29430940343018031
:0907EA0012077A0BBB08EBAF010A
:0107F30022E3
:10075300C201D2947F0C7E0012077EC2947F507E2A
:100763000012077ED2947F0A7E0012077EA2949223
:060773000112077AA20149
:01077900225D
:1007F400083CFFFFFFFFFFFFFFFF0B31C0F9A4B070
:07080400999282F88090BF79
:1007260075A0A0E4F580F5A0F589758CFC758A6640
:10073600D28CD2A9D2AF1206F2752F008F30E4FF09
:0D0746001206BF1206B8752B008F2C80FE26
:03000B0002000EE2
:10000E00C0E0C0F0C083C082C0D075D000C000C0B8
:0D001E0001C002C003C004C005C006C00739
:10002B000522E52270020521641E45217007F5218A
:10003B00F5221202700524E52470020523FFAE237E
:10004B00BE0311BFE80E7523007524001206F2756E
:10005B002F008F30E546600302012CE54724F26048
:10006B003624F760571470030200F6240B6003026A
:10007B00012CC3E52E952CE52D952B4068E52D9491
:10008B00004062E52E9463E52D94005058052EE553
:10009B002E7002052D804ED3E52E952CE52D952B3C
:1000AB004072E52B9400406CE52C9463E52B940097
:1000BB005062052CE52C7002052B8058D3E52E954C
:1000CB002CE52D952B401ED3E52E9400E52D9400A9
:1000DB004013D3E52E9463E52D94005008E52E15BF
:1000EB002E7002152DAD2EE4FF802DC3E52E952C21
:1000FB00E52D952B401ED3E52C9400E52B94004069
:10010B0013D3E52C9463E52B94005008E52C152CA8
:10011B007002152BAD2C7F0112063E7546007547FC
:07012B00371204491205FA26
:10013200D007D006D005D004D003D002D001D00021
:0B014200D0D0D082D083D0F0D0E032CB
:080322008F0B8E0A8D098C0877
:10032A00E4F514F515E47B0AFAF9F8AF0BAE0AAD59
:10033A0009AC081201DEAF03C374079515240CF843
:10034A00A607AF0BAE0AAD09AC08E47B0AFAF9F8C6
:10035A001201DE8F0B8E0A8D098C080515E51570C2
:10036A000205146408451470BCE4F514F515AF15BC
:10037A00740C2FF8E67014743C2FF876FF0515E517
:10038A0015700205146408451470E3C3E515940852
:10039A00E5149400501CAF15740C2FF8E62431F8BC
:1003AA00E6FE743C2FF8A6060515E51570DD051462
:0203BA0080D9E8
:0103BC00221E
:1005FA0075A0E07580FFE4F5A075A0C0AF2604A839
:10060A0007088002C333D8FCF580E4F5A075A0E0A2
:10061A00743C2FF8E6F580E4F5A0C3E5269407E5D7
:10062A0025940050090526E5267008052522E4F5DB
:03063A0025F5267D
:01063D00229A
:10027000D2B3D2B2D2B1D2B0C2B4C2B5C2C2C2C479
:1002800020B0047C01801720B1047C02801020B2D1
:10029000047C03800920B3047C0480027C05C2B383
:1002A000C2B2C2B1C2B0D2B4D2B5D2C2D2C420C4DA
:1002B000047D01801720C2047D02801020B5047DDA
:1002C00003800920B4047D0480027D05EC75F00AEA
:1002D000A4FFAEF0ED7A002FF52AEA3EF529E527D6
:1002E000703AE5281460161460282402702EE52A5E
:1002F00064374529602B75270075280122E52A649B
:100300003745296017852946852A477527007528AE
:100310000222E52A6437452970078001E4F527F5B4
:0103200028B4
:0103210022B9
:0706B800752D008F2E7F015C
:0206BF008F1892
:1006C10012067D7FA01205241205B6AF181205246B
:1006D1001205B612067D7FA11205241205B6120578
:1006E1006F8F191205B6C2011204C912079CAF1906
:0106F10022E6
:04063E008F188D196B
:1006420012067D7FA01205241205B6AF18120524EA
:100652001205B6AF191205241205B612079CE4FF63
:10066200FEE4FDFC0DBD00010CED64964C70F50F2F
:0A067200BF00010EEF64964E70E722
:01067C00225B
:1006F2001207537FCC1207BC7F441207BC12075368
:100702007FCC1207BC7FBE1207BC1207DA8F181209
:1007120007DAEFC454F0FFE518C4540F2FFFBF559A
:0307220002E4FFEF
:0107250022B1
:10044900E4FF1206BF1206B8752B008F2CAE2DAF34
:100459002E7C007D0A12014D74312FF8E6F53CAE71
:100469002DAF2E7C007D0A12014D74312DF8E6F571
:100479003DAE2BAF2C7C007D0A12014D74312FF853
:10048900E6F53EAE2BAF2C7C007D0A12014D74318E
:100499002DF8E6F53F7541FF7540FFAE2FAF307C73
:1004A900007D0A12014D74312FF8E6F542AE2FAFE7
:1004B900307C007D0A12014D74312DF8E6F5432296
:1003C900020726E493A3F8E493A34003F68001F21D
:1003D90008DFF48029E493A3F85407240CC8C33335
:1003E900C4540F4420C8834004F456800146F6DF04
:1003F900E4800B01020408102040809007F4E47E99
:10040900019360BCA3FF543F30E509541FFEE493F8
:10041900A360010ECF54C025E060A840B8E493A3BF
:10042900FAE493A3F8E493A3C8C582C8CAC583CAEA
:10043900F0A3C8C582C8CAC583CADFE9DEE780BEA2
:01080B0000EC
:10014D00BC000BBE0029EF8DF084FFADF022E4CC96
:10015D00F875F008EF2FFFEE33FEEC33FCEE9DEC5F
:10016D00984005FCEE9DFE0FD5F0E9E4CEFD22EDA5
:10017D00F8F5F0EE8420D21CFEADF075F008EF2FEF
:10018D00FFED33FD4007985006D5F0F222C398FDE0
:05019D000FD5F0EA227D
:1001A20075F008758200EF2FFFEE33FECD33CDCC14
:1001B20033CCC58233C5829BED9AEC99E582984097
:1001C2000CF582EE9BFEED9AFDEC99FC0FD5F0D674
:1001D200E4CEFBE4CDFAE4CCF9A88222B800C1B99E
:1001E2000059BA002DEC8BF084CFCECDFCE5F0CBDC
:1001F200F97818EF2FFFEE33FEED33FDEC33FCEB15
:1002020033FB10D703994004EB99FB0FD8E5E4F9CF
:10021200FA227818EF2FFFEE33FEED33FDEC33FCBC
:10022200C933C910D7059BE99A4007EC9BFCE99AB0
:10023200F90FD8E0E4C9FAE4CCFB2275F010EF2FF5
:10024200FFEE33FEED33FDCC33CCC833C810D707F5
:100252009BEC9AE899400AED9BFDEC9AFCE899F830
:0E0262000FD5F0DAE4CDFBE4CCFAE4C8F922C3
:00000001FF
