:030000000201BD3D
:0C01BD00787FE4F6D8FD7581440202044E
:10048000D2A1D2A000000000000000000000000087
:1004900000000000000000000000000000C2A100F9
:1004A000000000000000000000000000000000004C
:0B04B0000000000000000000C2A022BD
:1004E600C2A1D2A000000000000000000000000031
:1004F60000000000000000000000000000D2A12261
:1002B600300004C2A18002D2A100000000000000AC
:1002C6000000000000000000000000000000000028
:1002D6000000D2A0000000000000000000000000A6
:1002E60000000000000000000000000000C2A0D2D4
:1002F600A100000000000000000000000000000057
:0B0306000000000000000000000022CA
:1003F800D2A1000000000000000000000000000082
:100408000000000000000000000000D2A000000072
:1004180000000000000000000000000000000000D4
:1004280000000000000030A107C2A01204E6C322A9
:04043800C2A0D32269
:10036600E4FEEF30E704D2A18002C2A10000000043
:100376000000000000000000000000000000000077
:100386000000000000D2A0EF25E0FF000000000002
:100396000000000000000000000000000000000057
:0A03A60000000000C2A00EBE08B85F
:0103B000222A
:1003B100E4FED2A0000000000000000000000000E8
:1003C10000000000000000000000000000EF25E038
:1003D100FF30A103430701C2A0000000000000009C
:1003E100000000000000000000000000000000000C
:0603F10000000EBE08BC76
:0103F70022E3
:10051E000836FFFFFFFFFFFFFFFF0B2BC0F9A4B054
:07052E00999282F88090BF52
:1005060075A0A0E4F580F5A0F589758CFC758A6662
:08051600D28CD2A9D2AF80FE05
:03000B0002000EE2
:10000E00C0E0C0F0C083C082C0D075D000C000C0B8
:0D001E0001C002C003C004C005C006C00739
:10002B000524E52470020523641E45237007F52380
:10003B00F52412012BE54314602414606124026043
:10004B00030200D9E544B40D0375430175A0807517
:0E005B0080FF75A000AF40AE3F1202498073D7
:100069000522E5227002052164644521700CF52101
:10007900F5220540E5407002053FE53FC313F54110
:10008900E54013F542AF40AE3F12024975A08075B5
:0E009900807F75A000E544640E703875430248
:1000A700803375A0807580FF75A000E53FC313F509
:1000B70041E54013F542FFAE41120249E544B40D54
:1000C70014754301753F0075400075410075420086
:1000D70080037543000526E52670020525646445FF
:1000E70025700BF525F5267F011204BB8F3EE53EF3
:1000F700D39440500875A0807580FE800675A08057
:090107007580FF75A00012043C94
:10011000D007D006D005D004D003D002D001D00043
:0B012000D0D0D082D083D0F0D0E032ED
:040249008E088F0983
:10024D007536FFE52BF44480F4F537853038852B72
:10025D0039E4FBFAAE08AF097C007D0A120311C325
:10026D0074039B240AF8A605AE08AF097C007D0A2D
:10027D001203118E088F090BBB00010AEB64044AAF
:10028D0070D2E4FAFB740A2BF8E6242BF8E6FF741F
:10029D003A2BF8A6070BBB00010AEB64044A70E584
:0802AD00E53BF44480F4F53B4D
:0102B5002226
:10043C0075A0E07580FFE4F5A075A0C0AF2804A8F6
:10044C0007088002C333D8FCF580E4F5A075A0E062
:10045C0074362FF8E6F580E4F5A0C3E5289407E59B
:10046C0027940050090528E5287008052722E4F593
:03047C0027F52839
:01047F00225A
:10012B00D2B3D2B2D2B1D2B0C2B4C2B5C2C2C2C4BF
:10013B0020B0047E01801720B1047E02801020B213
:10014B00047E03800920B3047E0480027E05C2B3C3
:10015B00C2B2C2B1C2B0D2B4D2B5D2C2D2C420C420
:10016B00047F01801720C2047F02801020B5047F1A
:10017B0003800920B4047F0480027F05EE75F00A2A
:10018B00A42FF52AE52914601114601B2402701E9C
:10019B00E52A6437601B75290122E52A6437600E56
:1001AB00852A4475290222E52AB437058000E4F537
:0101BB00291A
:0101BC002220
:0204BB008F08A8
:1004BD001204807F901203661203F8AF08120366D0
:1004CD001203F81204807F911203661203F81203CF
:0804DD00B18F091204E6AF091A
:0104E50022F4
:1001C900020506E493A3F8E493A34003F68001F241
:1001D90008DFF48029E493A3F85407240CC8C33337
:1001E900C4540F4420C8834004F456800146F6DF06
:1001F900E4800B010204081020408090051EE47E73
:10020900019360BCA3FF543F30E509541FFEE493FA
:10021900A360010ECF54C025E060A840B8E493A3C1
:10022900FAE493A3F8E493A3C8C582C8CAC583CAEC
:10023900F0A3C8C582C8CAC583CADFE9DEE780BEA4
:0105350000C5
:10031100BC000BBE0029EF8DF084FFADF022E4CCD0
:10032100F875F008EF2FFFEE33FEEC33FCEE9DEC99
:10033100984005FCEE9DFE0FD5F0E9E4CEFD22EDDF
:10034100F8F5F0EE8420D21CFEADF075F008EF2F29
:10035100FFED33FD4007985006D5F0F222C398FD1A
:050361000FD5F0EA22B7
:00000001FF
