:0300000002042ACD
:0C042A00787FE4F6D8FD7581460204716D
:10066A00D2A1D2A00000000000000000000000009B
:10067A0000000000000000000000000000C2A1000D
:10068A000000000000000000000000000000000060
:0B069A000000000000000000C2A022D1
:10074600C2A1D2A0000000000000000000000000CE
:1007560000000000000000000000000000D2A122FE
:1004B600300204C2A18002D2A100000000000000A8
:1004C6000000000000000000000000000000000026
:1004D6000000D2A0000000000000000000000000A4
:1004E60000000000000000000000000000C2A0D2D2
:1004F600A100000000000000000000000000000055
:0B0506000000000000000000000022C8
:1005A300D2A10000000000000000000000000000D5
:1005B3000000000000000000000000D2A0000000C6
:1005C3000000000000000000000000000000000028
:1005D30000000000000030A107C2A0120746C3229A
:0405E300C2A0D322BD
:10051100E4FEEF30E704D2A18002C2A10000000096
:1005210000000000000000000000000000000000CA
:100531000000000000D2A0EF25E0FF000000000055
:1005410000000000000000000000000000000000AA
:0A05510000000000C2A00EBE08B8B2
:01055B00227D
:10055C00E4FED2A00000000000000000000000003B
:10056C0000000000000000000000000000EF25E08B
:10057C00FF30A103430701C2A000000000000000EF
:10058C00000000000000000000000000000000005F
:06059C0000000EBE08BCC9
:0105A2002236
:100780000839FFFFFFFFFFFFFFFF0B2DC0F9A4B0EB
:07079000999282F88090BFEE
:1007660075A0A0E4F580F5A0F589758CFC758A6600
:0A077600C28DD28CD2A9D2AF80FE52
:03000B0002000EE2
:10000E00C0E0C0F0C083C082C0D075D000C000C0B8
:0D001E0001C002C003C004C005C006C00739
:10002B000509E50970020508641E45087007F50807
:10003B00F5091202BCE54360030201B8E544146004
:10004B003C147003020144240260030201B87F03D5
:10005B001207137541008F42E542AE417802C3335C
:10006B00CE33CED8F912038B75A0A05380EF75A0B9
:0D007B000075A0807580FF75A00002013F98
:100088007F031207137541008F42E542AE417802A3
:10009800C333CE33CED8F9FFD394EEEE94024006A4
:1000A800754300754402E4FCFD12038F75A0A0534C
:1000B80080EF75A00030006D75A0A043801075A07A
:1000C800000522E5227002052164C845217068F503
:1000D80021F52230012575A080AF2404A8070880E7
:1000E80002C333D8FCF4F58075A0000524E524701C
:1000F80002052364084523703E802475A080AF2440
:100108007480A807088002C313D8FCF4F58075A092
:10011800000524E52470020523640845237018F5BA
:1001280023F524801275A0A05380EF75A00075A058
:0A013800807580FF75A0001206A577
:10014200807A75A0A05380EF75A00075A08075809D
:10015200FF75A00075A0A043804075A0007F031228
:1001620007137541008F42EF25E025E0F538E5429F
:10017200AE417802C333CE33CED8F912038BD3E526
:100182003894EE74809482500F7543007544017563
:10019200A0A075800075A000E538652C6013AD4203
:1001A200AF2B12062BE52BB4FF05752B0080020541
:0F01B2002B85382C80067543007544001205E735
:1001C100D007D006D005D004D003D002D001D00092
:0B01D100D0D0D082D083D0F0D0E0323C
:1005E70075A0E07580FFE4F5A075A0C0AF2604A84C
:1005F70007088002C333D8FCF580E4F5A075A0E0B6
:1006070074392FF8E6F580E4F5A0C3E5269407E5ED
:1006170025940050090526E5267008052522E4F5EE
:0306270025F52690
:01062A0022AD
:04038B00FFE4FCFD92
:08038F008F0D8E0C8D0B8C0A02
:10039700E4F516F517E47B0AFAF9F8AF0DAE0CADE4
:1003A7000BAC0A12022AAF03C374079517240EF881
:1003B700A607AF0DAE0CAD0BAC0AE47B0AFAF9F851
:1003C70012022A8F0D8E0C8D0B8C0A0517E51770FC
:1003D7000205166408451670BCE4F516F517AF1745
:1003E700740E2FF8E6701474392FF876FF0517E5A9
:1003F70017700205166408451670E3C3E5179408DD
:10040700E5169400501CAF17740E2FF8E6242DF84C
:10041700E6FE74392FF8A6060517E51770DD0516F1
:0204270080D97A
:0104290022B0
:1002BC00D2B3D2B2D2B1D2B0C2B4C2B5C2C2C2C42D
:1002CC0020B008750A00750B01802720B108750A4B
:1002DC0000750B02801C20B208750A00750B038098
:1002EC001120B308750A00750B048006750A007599
:1002FC000B05C2B3C2B2C2B1C2B0D2B4D2B5D2C273
:10030C00D2C420C4067A007B01801D20C2067A006C
:10031C007B02801420B5067A007B03800B7A0020C8
:10032C00B4047B0480027B05AE0AAF0B7C007D0A13
:10033C001201DCEF2BF52AEE3AF529E527703AE5A8
:10034C00281460161460282402702EE52A643745A0
:10035C0029602B75270075280122E52A6437452969
:10036C006017752700752802852945852A4622E5E0
:0E037C002A6437452970078001E4F527F5282B
:01038A002250
:0206E0008F1871
:1006E20012066A7FA01205111205A3AF1812051196
:1006F2001205A312066A7FA11205111205A31205A3
:100702005C8F191205A3C2021204B6120746AF1972
:0107120022C4
:04062B008F0A8D0B9A
:10062F0012066A7FA01205111205A3AF0A12051157
:10063F001205A3AF0B1205111205A3120746E4FF13
:10064F00FEE4FDFC0DBD00010CED64964C70F50F42
:0A065F00BF00010EEF64964E70E735
:01066900226E
:020713008F0A4B
:1007150012066A7F901205111205A3AF0A12051180
:100725001205A312066A7F911205111205A312057F
:100735005C8F0B1205A3C2021204B6120746AF0B5B
:010745002291
:1006A500E5457036E54624EB601414601814601CAB
:1006B50024097026754300754401D2008016300068
:1006C50019D201800F300012C201800875430075F0
:0B06D5004401C2007545007546372245
:10043600020766E493A3F8E493A34003F68001F26F
:1004460008DFF48029E493A3F85407240CC8C333C7
:10045600C4540F4420C8834004F456800146F6DF96
:10046600E4800B0102040810204080900780E47E9F
:10047600019360BCA3FF543F30E509541FFEE4938B
:10048600A360010ECF54C025E060A840B8E493A352
:10049600FAE493A3F8E493A3C8C582C8CAC583CA7D
:1004A600F0A3C8C582C8CAC583CADFE9DEE780BE35
:010797000061
:1001DC00EF8DF0A4A8F0CF8CF0A428CE8DF0A42E37
:0201EC00FE22F1
:1001EE0075F008758200EF2FFFEE33FECD33CDCCC8
:1001FE0033CCC58233C5829BED9AEC99E58298404B
:10020E000CF582EE9BFEED9AFDEC99FC0FD5F0D627
:10021E00E4CEFBE4CDFAE4CCF9A88222B800C1B951
:10022E000059BA002DEC8BF084CFCECDFCE5F0CB8F
:10023E00F97818EF2FFFEE33FEED33FDEC33FCEBC8
:10024E0033FB10D703994004EB99FB0FD8E5E4F983
:10025E00FA227818EF2FFFEE33FEED33FDEC33FC70
:10026E00C933C910D7059BE99A4007EC9BFCE99A64
:10027E00F90FD8E0E4C9FAE4CCFB2275F010EF2FA9
:10028E00FFEE33FEED33FDCC33CCC833C810D707A9
:10029E009BEC9AE899400AED9BFDEC9AFCE899F8E4
:0E02AE000FD5F0DAE4CDFBE4CCFAE4C8F92277
:00000001FF
