:03000000020321D7
:0C032100787FE4F6D8FD75814502036882
:10070800E4FEC297EF1392A3EFC313FFD2970EBE76
:0207180008F0E7
:01071A0022BC
:1006F400C29300C29700D29300120708AF051207F5
:0407040008C2932272
:10060500E4FDC29300C29700D29300120708E4FFED
:10061500C297EDC313FD30A303430580D2970FBFE7
:1006250008EEC29300C293C29700D29700C2A300FE
:05063500D2A300AF0597
:01063A00229D
:1005CA00D2A1D2A00000000000000000000000003C
:1005DA0000000000000000000000000000C2A100AE
:1005EA000000000000000000000000000000000001
:0B05FA000000000000000000C2A02272
:10068400C2A1D2A000000000000000000000000091
:1006940000000000000000000000000000D2A122C1
:1003AD00300504C2A18002D2A100000000000000AF
:1003BD000000000000000000000000000000000030
:1003CD000000D2A0000000000000000000000000AE
:1003DD0000000000000000000000000000C2A0D2DC
:1003ED00A10000000000000000000000000000005F
:0B03FD000000000000000000000022D3
:10058600D2A10000000000000000000000000000F2
:100596000000000000000000000000D2A0000000E3
:1005A6000000000000000000000000000000000045
:1005B60000000000000030A107C2A0120684C3227A
:0405C600C2A0D322DA
:10046000E4FEEF30E704D2A18002C2A10000000048
:10047000000000000000000000000000000000007C
:100480000000000000D2A0EF25E0FF000000000007
:10049000000000000000000000000000000000005C
:0A04A00000000000C2A00EBE08B864
:0104AA00222F
:10053F00E4FED2A000000000000000000000000058
:10054F0000000000000000000000000000EF25E0A8
:10055F00FF30A103430701C2A0000000000000000C
:10056F00000000000000000000000000000000007C
:06057F0000000EBE08BCE6
:010585002253
:040662007F057E0092
:10066600EF1FAA0670011E4A6013E4FCFDC3ED9459
:0D06760005EC940050EA0DBD00010C80F071
:010683002254
:0206A400A907A4
:1006A600E4FBC294E9139294120662D294E9C3134E
:0C06B600F90BBB08ED7F057E0002066614
:1006C200E4FBC294E9C313F9D2943094034301804A
:0906D2001206620BBB08EBAF013C
:0106DB0022FC
:10063B00C206D2947F0C7E00120666C2947F507E57
:10064B0000120666D2947F0A7E00120666A294926E
:06065B0006120662A20671
:010661002276
:1006DC000833FFFFFFFFFFFFFFFF0B28C0F9A4B09B
:0706EC00999282F88090BF93
:10000E00E5A0541F44A0F5A0C286C28453A01FE4ED
:10001E00FD7F8E1206F47D0C7F841206F47D1E7F0A
:10002E00821206F4E4FD7F801206F45389F0438EAB
:10003E0080758A9A758CA9D28CC28DD2A9D2AFE561
:0F004E003D14604F24F950F7240860030201208D
:10005D00E4F521E5A0541F4480F5A0AF217401A85B
:10006D0007088002C333D8FCF4F58053A01FE4F5D4
:10007D0022E4F5230523E523B4FFF90522E522B497
:10008D00FFEF0521E521B408CAAF45E4FCFDFE12E2
:02009D0001F46C
:02009F0080AC33
:1000A1003000A9E4FD7F8E1206F47F851206058FCC
:1000B1003B7F831206058F3C7F811206058F3EE54B
:1000C1003B540FF540E53BC4540FF541E53C540F5B
:1000D100F543E53CC4540FF542E53E540FF545E5C3
:1000E1003EC4540FF54474282540F8E6F5337428CE
:1000F1002541F8E6F53474282542F8E6F5367428EA
:100101002543F8E6F53774282544F8E6F5397428CF
:0C0111002545F8E6F53AAF328F388F35FF
:09011D0002004DE4F53D02004D25
:03000B000204AB41
:1004AB00C0E0C0F0C083C082C0D075D000C000C017
:0D04BB0001C002C003C004C005C006C00798
:1004C8000524E524B40F0675240012028F1204F6E1
:0304D80012040803
:1004DB00D007D006D005D004D003D002D001D00075
:0B04EB00D0D0D082D083D0F0D0E0321F
:0801F4008F0B8E0A8D098C08A7
:1001FC00E4F514F515E47B0AFAF9F8AF0BAE0AAD89
:10020C0009AC08120162AF03C374079515240CF8EE
:10021C00A607AF0BAE0AAD09AC08E47B0AFAF9F8F5
:10022C001201628F0B8E0A8D098C080515E515706D
:10023C000205146408451470BCE4F514F515AF15EB
:10024C00740C2FF8E6701474332FF876FF0515E54F
:10025C0015700205146408451470E3C3E515940881
:10026C00E5149400501CAF15740C2FF8E62428F8F4
:10027C00E6FE74332FF8A6060515E51570DD05149A
:02028C0080D917
:01028E00224D
:1004F600E5A0541F44E0F5A07580FF53A01FE5A0BA
:10050600541F44C0F5A0AF257401A807088002C394
:1005160033D8FCF58053A01FE5A0541F44E0F5A096
:1005260074332525F8E6F58053A01FE525C3940707
:080536005003052522E4F52520
:01053E00229A
:10028F00D2B3D2B2D2B1D2B0C2B4C2B5C2C2C2C45A
:10029F0020B0047E01801720B1047E02801020B2AE
:1002AF00047E03800920B3047E0480027E05D2B44D
:1002BF00D2B5D2C2D2C4C2B3C2B2C2B1C2B020C4CC
:1002CF00047F01801720C2047F02801020B5047FB5
:1002DF0003800920B4047F0480027F05EE75F00AC5
:1002EF00A42FF527E52614601114601B2402701E3D
:1002FF00E5276437601B75260122E5276437600EFA
:10030F0085274575260222E527B437058000E4F5D9
:01031F0026B7
:0103200022BA
:10040800E54524F4601F14602524F8602814602C46
:1004180024F7602F1460331460372416703975453B
:1004280037E4F53D22D202754537753D0122754501
:1004380037753D0222754537753D03227545377579
:100448003D0422754537753D0522754537753D06CE
:0804580022754537753D0722AE
:10032D0002000EE493A3F8E493A34003F68001F2D8
:10033D0008DFF48029E493A3F85407240CC8C333D1
:10034D00C4540F4420C8834004F456800146F6DFA0
:10035D00E4800B01020408102040809006DCE47E4E
:10036D00019360BCA3FF543F30E509541FFEE49395
:10037D00A360010ECF54C025E060A840B8E493A35C
:10038D00FAE493A3F8E493A3C8C582C8CAC583CA87
:10039D00F0A3C8C582C8CAC583CADFE9DEE780BE3F
:0106F3000006
:1001260075F008758200EF2FFFEE33FECD33CDCC90
:1001360033CCC58233C5829BED9AEC99E582984013
:100146000CF582EE9BFEED9AFDEC99FC0FD5F0D6F0
:10015600E4CEFBE4CDFAE4CCF9A88222B800C1B91A
:100166000059BA002DEC8BF084CFCECDFCE5F0CB58
:10017600F97818EF2FFFEE33FEED33FDEC33FCEB91
:1001860033FB10D703994004EB99FB0FD8E5E4F94C
:10019600FA227818EF2FFFEE33FEED33FDEC33FC39
:1001A600C933C910D7059BE99A4007EC9BFCE99A2D
:1001B600F90FD8E0E4C9FAE4CCFB2275F010EF2F72
:1001C600FFEE33FEED33FDCC33CCC833C810D70772
:1001D6009BEC9AE899400AED9BFDEC9AFCE899F8AD
:0E01E6000FD5F0DAE4CDFBE4CCFAE4C8F92240
:00000001FF
