:03000000020B638D
:0C0B6300787FE4F6D8FD758148020BAAEB
:100C3300044500000000083BFFFFFFFFFFFFFFFF2D
:0D0C43000B30C0F9A4B0999282F88090FDAA
:100C510075A0A0E4F580F5A0F589758CFC758A6610
:0A0C6100D28CD2A9D2AFD20080FEDF
:100BEF0075A0E07580FFE4F5A075A0C0AF2204A842
:100BFF0007088002C333D8FCF580E4F5A075A0E0A8
:100C0F00743B2FF8E6F580E4F5A0C3E5229407E5E1
:100C1F0021940050090522E5227008052122E4F5F0
:030C2F0021F5228A
:010C3200229F
:080ACA008F0B8E0A8D098C08C8
:100AD200750C00750D07E47B0AFAF9F8AF0BAE0A44
:100AE200AD09AC0812094EAF03740E250DF8A60726
:100AF200AF0BAE0AAD09AC08E47B0AFAF9F81209A9
:100B02004E8F0B8E0A8D098C08E50D150D7002159E
:100B12000CE50D450C70BFE4F50CF50DAF0D740E30
:100B22002FF8E67014743B2FF876FF050DE50D7073
:100B320002050C6408450C70E3C3E50D9408E50C4E
:100B42009400501CAF0D740E2FF8E62430F8E6FE28
:100B5200743B2FF8A606050DE50D70DD050C80D956
:010B62002270
:10080000C2B4C2B5C2C2C2C4D2B3D2B2D2B1D2B0E3
:1008100020B0047C01801720B1047C02801020B23B
:10082000047C03800920B3047C0480027C05C2B3ED
:10083000C2B2C2B1C2B0D2B4D2B5D2C2D2C420C444
:10084000047D01801720C2047D02801020B5047D44
:1008500003800920B4047D0480027D05EC75F00A54
:10086000A4FFAEF0ED7A002FF527EA3EF526E5234A
:100870001460241460321460401470030208FC24D5
:1008800004600302090BE52765257004E52665244D
:1008900060797523018074E527B5250AE526B5241E
:1008A0000575230280658060E527B5250AE526B534
:1008B000240575230380548034E52765257004E5FD
:1008C00026652470460529E529AE287002052814FE
:1008D000D39464EE94004015E4F528F52985244569
:1008E000852546F547754801752304801E852445F6
:1008F000852546E4F547F548F523800FE52765256E
:100900007004E52665246003E4F523852624852705
:0109100025C1
:0109110022C3
:03000B000209F1F6
:1009F100C0E0C0F0C083C082C0D075D000C000C0CC
:0D0A010001C002C003C004C005C006C0074C
:100A0E00E52B640A452A7009F52AF52B1208008099
:100A1E0008052BE52B7002052A30003F7FFF7EE094
:100A2E007DF57C05AB2FAA2EA92DA82CC31209E0AB
:100A3E00700AF52FF52EF52DF52C801FAE47AF4819
:100A4E00E4FCFD120ACAE52F2401F52FE4352EF53C
:100A5E002EE4352DF52DE4352CF52CE546640B45AD
:100A6E0045701BE54845477015200004D2008002F2
:100A7E00C200754700754800754500754600E5468D
:100A8E00640B45457018E548640145477010F52F15
:100A9E00F52EF52DF52CF547F548F545F546120BD7
:010AAE00EF58
:100AAF00D007D006D005D004D003D002D001D0009B
:0B0ABF00D0D0D082D083D0F0D0E03245
:100B6F00020C51E493A3F8E493A34003F68001F23F
:100B7F0008DFF48029E493A3F85407240CC8C33387
:100B8F00C4540F4420C8834004F456800146F6DF56
:100B9F00E4800B0102040810204080900C33E47EA7
:100BAF00019360BCA3FF543F30E509541FFEE4934B
:100BBF00A360010ECF54C025E060A840B8E493A312
:100BCF00FAE493A3F8E493A3C8C582C8CAC583CA3D
:100BDF00F0A3C8C582C8CAC583CADFE9DEE780BEF5
:010C500000A3
:1009120075F008758200EF2FFFEE33FECD33CDCC9C
:1009220033CCC58233C5829BED9AEC99E58298401F
:100932000CF582EE9BFEED9AFDEC99FC0FD5F0D6FC
:10094200E4CEFBE4CDFAE4CCF9A88222B800C1B926
:100952000059BA002DEC8BF084CFCECDFCE5F0CB64
:10096200F97818EF2FFFEE33FEED33FDEC33FCEB9D
:1009720033FB10D703994004EB99FB0FD8E5E4F958
:10098200FA227818EF2FFFEE33FEED33FDEC33FC45
:10099200C933C910D7059BE99A4007EC9BFCE99A39
:1009A200F90FD8E0E4C9FAE4CCFB2275F010EF2F7E
:1009B200FFEE33FEED33FDCC33CCC833C810D7077E
:1009C2009BEC9AE899400AED9BFDEC9AFCE899F8B9
:0E09D2000FD5F0DAE4CDFBE4CCFAE4C8F9224C
:1009E000EB9FF5F0EA9E42F0E99D42F0E89C45F06D
:0109F00022E4
:00000001FF
