:03000000020AC829
:0C0AC800787FE4F6D8FD758143020B0F27
:100B98000440000000000836FFFFFFFFFFFFFFFFD3
:0D0BA8000B2BC0F9A4B0999282F88090FD4B
:100BB60075A0A0E4F580F5A0F589758CFC758A66AC
:0A0BC600D28CD2A9D2AFD20080FE7B
:100B540075A0E07580FFE4F5A075A0C0AF2204A8DD
:100B640007088002C333D8FCF580E4F5A075A0E043
:100B740074362FF8E6F580E4F5A0C3E5229407E582
:100B840021940050090522E5227008052122E4F58C
:030B940021F52226
:010B9700223B
:080A2F008F0B8E0A8D098C0863
:100A3700750C00750D07E47B0AFAF9F8AF0BAE0ADF
:100A4700AD09AC0812083CAF03740E250DF8A607D4
:100A5700AF0BAE0AAD09AC08E47B0AFAF9F8120845
:100A67003C8F0B8E0A8D098C08E50D150D7002154C
:100A77000CE50D450C70BFE4F50CF50DAF0D740ECC
:100A87002FF8E6701474362FF876FF050DE50D7014
:100A970002050C6408450C70E3C3E50D9408E50CEA
:100AA7009400501CAF0D740E2FF8E6242BF8E6FEC9
:100AB70074362FF8A606050DE50D70DD050C80D9F7
:010AC700220C
:10099500C2B4C2B5C2C2C2C4D2B3D2B2D2B1D2B04D
:1009A50020B0047E01801720B1047E02801020B2A1
:1009B500047E03800920B3047E0480027E05C2B351
:1009C500C2B2C2B1C2B0D2B4D2B5D2C2D2C420C4AE
:1009D500047F01801720C2047F02801020B5047FA8
:1009E50003800920B4047F0480027F05EE75F00AB8
:1009F500A42FF524E5231460111460232402702626
:100A0500E5246437602375230122E52464376016E5
:100A1500754000852441E4F542F54375230222E53E
:090A250024B437058000E4F52338
:010A2E0022A5
:03000B000208DF09
:1008DF00C0E0C0F0C083C082C0D075D000C000C0DF
:0D08EF0001C002C003C004C005C006C00760
:1008FC000526E52670020525640F45257007F525AC
:10090C00F5261209953000407FFF7EE07DF57C05D1
:10091C00AB2AAA29A928A827C31208CE700AF52A3F
:10092C00F529F528F5278020AF2AAE29AD28AC276C
:10093C00120A2FE52A2401F52AE43529F529E43594
:10094C0028F528E43527F527E54164164540701B4A
:10095C00E54345427015200004D2008002C20075A8
:0E096C004200754300754000754100120B54A7
:10097A00D007D006D005D004D003D002D001D000D1
:0B098A00D0D0D082D083D0F0D0E0327B
:100AD400020BB6E493A3F8E493A34003F68001F277
:100AE40008DFF48029E493A3F85407240CC8C33323
:100AF400C4540F4420C8834004F456800146F6DFF2
:100B0400E4800B0102040810204080900B98E47EDE
:100B1400019360BCA3FF543F30E509541FFEE493E6
:100B2400A360010ECF54C025E060A840B8E493A3AD
:100B3400FAE493A3F8E493A3C8C582C8CAC583CAD8
:100B4400F0A3C8C582C8CAC583CADFE9DEE780BE90
:010BB500003F
:1008000075F008758200EF2FFFEE33FECD33CDCCAF
:1008100033CCC58233C5829BED9AEC99E582984032
:100820000CF582EE9BFEED9AFDEC99FC0FD5F0D60F
:10083000E4CEFBE4CDFAE4CCF9A88222B800C1B939
:100840000059BA002DEC8BF084CFCECDFCE5F0CB77
:10085000F97818EF2FFFEE33FEED33FDEC33FCEBB0
:1008600033FB10D703994004EB99FB0FD8E5E4F96B
:10087000FA227818EF2FFFEE33FEED33FDEC33FC58
:10088000C933C910D7059BE99A4007EC9BFCE99A4C
:10089000F90FD8E0E4C9FAE4CCFB2275F010EF2F91
:1008A000FFEE33FEED33FDCC33CCC833C810D70791
:1008B0009BEC9AE899400AED9BFDEC9AFCE899F8CC
:0E08C0000FD5F0DAE4CDFBE4CCFAE4C8F9225F
:1008CE00EB9FF5F0EA9E42F0E99D42F0E89C45F080
:0108DE0022F7
:00000001FF
