:03000000020A0CE5
:0C0A0C00787FE4F6D8FD758135020A53AE
:100AF700081EFFFFFFFFFFFFFFFF0B12C0F9A4B0A7
:070B0700999282F88090FD35
:100ADC0075A0A0E4F580F5A0751DFFF589758CFC5B
:0B0AEC00758A66D28CD2A9D2AF80FEC2
:100A980075A0E07580FFE4F5A075A0C0AF0904A8B3
:100AA80007088002C333D8FCF580E4F5A075A0E000
:100AB800741E2FF8E6F580E4F5A0C3E5099407E570
:100AC80008940050090509E5097008050822E4F5AD
:030AD80008F50915
:010ADB0022F8
:0808DF008F2B8E2A8D298C2835
:1008E700752C00752D07E47B0AFAF9F8AF2BAE2AB1
:1008F700AD29AC2812083CAF03742E252DF8A607A6
:10090700AF2BAE2AAD29AC28E47B0AFAF9F8120816
:100917003C8F2B8E2A8D298C28E52D152D700215DD
:100927002CE52D452C70BFE4F52CF52DAF2D742E3D
:100937002FF8E67014741E2FF876FF052DE52D703D
:1009470002052C6408452C70E3C3E52D9408E52CBB
:100957009400501CAF2D742E2FF8E62412F8E6FEF3
:10096700741E2FF8A606052DE52D70DD052C80D900
:01097700225D
:010B0F0022C3
:010B100022C2
:03000B000209786F
:10097800C0E0C0F0C083C082C0D075D000C000C045
:0D09880001C002C003C004C005C006C007C6
:10099500E50B640A450A7009F50AF50B120B0F8081
:1009A50008050BE50B7002050A7FFF7EE07DF57CEF
:1009B50005AB0FAA0EA90DA80CC31208CE700AF537
:1009C5000FF50EF50DF50C8020AF0FAE0EAD0DAC8D
:1009D5000C1208DFE50F2401F50FE4350EF50EE4E2
:0C09E500350DF50DE4350CF50C120A98E8
:1009F100D007D006D005D004D003D002D001D0005A
:0B0A0100D0D0D082D083D0F0D0E03203
:100A1800020ADCE493A3F8E493A34003F68001F20E
:100A280008DFF48029E493A3F85407240CC8C333DF
:100A3800C4540F4420C8834004F456800146F6DFAE
:100A4800E4800B0102040810204080900AF7E47E3D
:100A5800019360BCA3FF543F30E509541FFEE493A3
:100A6800A360010ECF54C025E060A840B8E493A36A
:100A7800FAE493A3F8E493A3C8C582C8CAC583CA95
:100A8800F0A3C8C582C8CAC583CADFE9DEE780BE4D
:010B0E0000E6
:1008000075F008758200EF2FFFEE33FECD33CDCCAF
:1008100033CCC58233C5829BED9AEC99E582984032
:100820000CF582EE9BFEED9AFDEC99FC0FD5F0D60F
:10083000E4CEFBE4CDFAE4CCF9A88222B800C1B939
:100840000059BA002DEC8BF084CFCECDFCE5F0CB77
:10085000F97818EF2FFFEE33FEED33FDEC33FCEBB0
:1008600033FB10D703994004EB99FB0FD8E5E4F96B
:10087000FA227818EF2FFFEE33FEED33FDEC33FC58
:10088000C933C910D7059BE99A4007EC9BFCE99A4C
:10089000F90FD8E0E4C9FAE4CCFB2275F010EF2F91
:1008A000FFEE33FEED33FDCC33CCC833C810D70791
:1008B0009BEC9AE899400AED9BFDEC9AFCE899F8CC
:0E08C0000FD5F0DAE4CDFBE4CCFAE4C8F9225F
:1008CE00EB9FF5F0EA9E42F0E99D42F0E89C45F080
:0108DE0022F7
:00000001FF
