:03000000020AF9F8
:0C0AF900787FE4F6D8FD758143020B40C5
:100BEE000440000000000836FFFFFFFFFFFFFFFF7D
:0D0BFE000B2BC0F9A4B0999282F88090BF33
:100C0C0075A0A0E4F580F5A0F589758CFC758A6655
:0A0C1C00D28CD2A9D2AFD20080FE24
:100B850075A0E07580FFE4F5A075A0C0AF2204A8AC
:100B950007088002C333D8FCF580E4F5A075A0E012
:100BA50074362FF8E6F580E4F5A0C3E5229407E551
:100BB50021940050090522E5227008052122E4F55B
:030BC50021F522F5
:010BC800220A
:080A60008F0B8E0A8D098C0832
:100A6800750C00750D07E47B0AFAF9F8AF0BAE0AAE
:100A7800AD09AC08120923AF03740E250DF8A607BB
:100A8800AF0BAE0AAD09AC08E47B0AFAF9F8120913
:100A9800238F0B8E0A8D098C08E50D150D70021534
:100AA8000CE50D450C70BFE4F50CF50DAF0D740E9B
:100AB8002FF8E6701474362FF876FF050DE50D70E3
:100AC80002050C6408450C70E3C3E50D9408E50CB9
:100AD8009400501CAF0D740E2FF8E6242BF8E6FE98
:100AE80074362FF8A606050DE50D70DD050C80D9C6
:010AF80022DB
:1009C600C2B4C2B5C2C2C2C4D2B3D2B2D2B1D2B01C
:1009D60020B0047E01801720B1047E02801020B270
:1009E600047E03800920B3047E0480027E05C2B320
:1009F600C2B2C2B1C2B0D2B4D2B5D2C2D2C420C47D
:100A0600047F01801720C2047F02801020B5047F76
:100A160003800920B4047F0480027F05EE75F00A86
:100A2600A42FF524E52314601114602324027026F4
:100A3600E5246437602375230122E52464376016B4
:100A4600754000852441E4F542F54375230222E50D
:090A560024B437058000E4F52307
:010A5F002274
:100BC900EF14600F14601424027019853536852BD3
:100BD90037800E853536852C378006853536852D47
:050BE9003785353822BC
:03000B00020800E8
:10080000C0E0C0F0C083C082C0D075D000C000C0BE
:0D08100001C002C003C004C005C006C0073F
:10081D000526E52670020525641E45257007F5257C
:10082D00F5261209C63000577F7F7E967D987C0095
:10083D00AB2AAA29A928A827C31209B57012F52A2F
:10084D00F529F528F5277F02120BC9852B3D802F41
:10085D00E47BE87A03F9F8AF2AAE29AD28AC27126C
:10086D000923120A607F01120BC9E52A2401F52A1A
:10087D00E43529F529E43528F528E43527F527E56C
:10088D00407039E54124F36013047030200004D228
:10089D0000801DC200E4FF120BC98014752A00757B
:1008AD0029007528007527007F02120BC9852B3D85
:0F08BD00754200754300754000754100120B85B0
:1008CC00D007D006D005D004D003D002D001D00080
:0B08DC00D0D0D082D083D0F0D0E0322A
:100B0500020C0CE493A3F8E493A34003F68001F2EE
:100B150008DFF48029E493A3F85407240CC8C333F1
:100B2500C4540F4420C8834004F456800146F6DFC0
:100B3500E4800B0102040810204080900BEEE47E57
:100B4500019360BCA3FF543F30E509541FFEE493B5
:100B5500A360010ECF54C025E060A840B8E493A37C
:100B6500FAE493A3F8E493A3C8C582C8CAC583CAA7
:100B7500F0A3C8C582C8CAC583CADFE9DEE780BE5F
:010C0B0000E8
:1008E70075F008758200EF2FFFEE33FECD33CDCCC8
:1008F70033CCC58233C5829BED9AEC99E58298404B
:100907000CF582EE9BFEED9AFDEC99FC0FD5F0D627
:10091700E4CEFBE4CDFAE4CCF9A88222B800C1B951
:100927000059BA002DEC8BF084CFCECDFCE5F0CB8F
:10093700F97818EF2FFFEE33FEED33FDEC33FCEBC8
:1009470033FB10D703994004EB99FB0FD8E5E4F983
:10095700FA227818EF2FFFEE33FEED33FDEC33FC70
:10096700C933C910D7059BE99A4007EC9BFCE99A64
:10097700F90FD8E0E4C9FAE4CCFB2275F010EF2FA9
:10098700FFEE33FEED33FDCC33CCC833C810D707A9
:100997009BEC9AE899400AED9BFDEC9AFCE899F8E4
:0E09A7000FD5F0DAE4CDFBE4CCFAE4C8F92277
:1009B500EB9FF5F0EA9E42F0E99D42F0E89C45F098
:0109C500220F
:00000001FF
