:03000000020AEF02
:0C0AEF00787FE4F6D8FD758145020B36D7
:100BBF000442000000000838FFFFFFFFFFFFFFFFA8
:100BCF000B2DC0F9A4B0999282F88090FD012400FA
:100BE00075A0A0E4F580F5A0F589758CFC758A6682
:0A0BF000D28CD2A9D2AFD20080FE51
:100B7B0075A0E07580FFE4F5A075A0C0AF2204A8B6
:100B8B0007088002C333D8FCF580E4F5A075A0E01C
:100B9B0074382FF8E6F580E4F5A0C3E5229407E559
:100BAB0021940050090522E5227008052122E4F565
:030BBB0021F522FF
:010BBE002214
:080A56008F0B8E0A8D098C083C
:100A5E00750C00750D07E47B0AFAF9F8AF0BAE0AB8
:100A6E00AD09AC0812083CAF03740E250DF8A607AD
:100A7E00AF0BAE0AAD09AC08E47B0AFAF9F812081E
:100A8E003C8F0B8E0A8D098C08E50D150D70021525
:100A9E000CE50D450C70BFE4F50CF50DAF0D740EA5
:100AAE002FF8E6701474382FF876FF050DE50D70EB
:100ABE0002050C6408450C70E3C3E50D9408E50CC3
:100ACE009400501CAF0D740E2FF8E6242DF8E6FEA0
:100ADE0074382FF8A606050DE50D70DD050C80D9CE
:010AEE0022E5
:1008DF00C2B4C2B5C2C2C2C4D2B3D2B2D2B1D2B004
:1008EF0020B0047E01801720B1047E02801020B258
:1008FF00047E03800920B3047E0480027E05C2B308
:10090F00C2B2C2B1C2B0D2B4D2B5D2C2D2C420C464
:10091F00047F01801720C2047F02801020B5047F5E
:10092F0003800920B4047F0480027F05EE75F00A6E
:10093F00A42FF525E52414601814602114602A14DF
:10094F0060592404705DE5256526605A7524018081
:10095F0055E525B52605752402804B8046E525B55E
:0E096F002605752403803F8023E525B5261E4E
:10097D00AD230523EDD39450402E754200852543BC
:0C098D00754400754501752404E4F52351
:10099900801A754200852543E4F544F545F5248020
:0F09A9000BE525652660058000E4F524852526ED
:0109B800221C
:03000B000209B92E
:1009B900C0E0C0F0C083C082C0D075D000C000C004
:0D09C90001C002C003C004C005C006C00785
:1009D6000528E52870020527640A45277007F527CC
:1009E600F5281208DF3000407FFF7EE07DF57C05AC
:1009F600AB2CAA2BA92AA829C31208CE700AF52C5B
:100A0600F52BF52AF5298020AF2CAE2BAD2AAC2983
:100A1600120A56E52C2401F52CE4352BF52BE4358A
:100A26002AF52AE43529F529AE42AF43E4FCFD1246
:050A36000A56120B7BC3
:100A3B00D007D006D005D004D003D002D001D0000F
:0B0A4B00D0D0D082D083D0F0D0E032B9
:100AFB00020BE0E493A3F8E493A34003F68001F226
:100B0B0008DFF48029E493A3F85407240CC8C333FB
:100B1B00C4540F4420C8834004F456800146F6DFCA
:100B2B00E4800B0102040810204080900BBFE47E90
:100B3B00019360BCA3FF543F30E509541FFEE493BF
:100B4B00A360010ECF54C025E060A840B8E493A386
:100B5B00FAE493A3F8E493A3C8C582C8CAC583CAB1
:100B6B00F0A3C8C582C8CAC583CADFE9DEE780BE69
:010BDF000015
:1008000075F008758200EF2FFFEE33FECD33CDCCAF
:1008100033CCC58233C5829BED9AEC99E582984032
:100820000CF582EE9BFEED9AFDEC99FC0FD5F0D60F
:10083000E4CEFBE4CDFAE4CCF9A88222B800C1B939
:100840000059BA002DEC8BF084CFCECDFCE5F0CB77
:10085000F97818EF2FFFEE33FEED33FDEC33FCEBB0
:1008600033FB10D703994004EB99FB0FD8E5E4F96B
:10087000FA227818EF2FFFEE33FEED33FDEC33FC58
:10088000C933C910D7059BE99A4007EC9BFCE99A4C
:10089000F90FD8E0E4C9FAE4CCFB2275F010EF2F91
:1008A000FFEE33FEED33FDCC33CCC833C810D70791
:1008B0009BEC9AE899400AED9BFDEC9AFCE899F8CC
:0E08C0000FD5F0DAE4CDFBE4CCFAE4C8F9225F
:1008CE00EB9FF5F0EA9E42F0E99D42F0E89C45F080
:0108DE0022F7
:00000001FF
