:03000000020DB43A
:0C0DB400787FE4F6D8FD758152020DFB3B
:10110700E4FEC297EF1392A3EFC313FFD2970EBE6D
:0211170008F0DE
:0111190022B3
:1010F300C29300C29700D29300121107AF051211D9
:0411030007C293226A
:100FE500E4FDC29300C29700D29300121107E4FFFB
:100FF500C297EDC313FD30A303430580D2970FBFFE
:1010050008EEC29300C293C29700D29700C2A30014
:05101500D2A300AF05AD
:01101A0022B3
:100F7100D2A1D2A00000000000000000000000008B
:100F810000000000000000000000000000C2A100FD
:100F91000000000000000000000000000000000050
:0B0FA1000000000000000000C2A022C1
:10106600C2A1D2A0000000000000000000000000A5
:1010760000000000000000000000000000D2A122D5
:100E4000300004C2A18002D2A10000000000000016
:100E50000000000000000000000000000000000092
:100E60000000D2A000000000000000000000000010
:100E700000000000000000000000000000C2A0D23E
:100E8000A1000000000000000000000000000000C1
:0B0E9000000000000000000000002235
:100F2D00D2A1000000000000000000000000000041
:100F3D000000000000000000000000D2A000000032
:100F4D000000000000000000000000000000000094
:100F5D0000000000000030A107C2A0121066C322DD
:040F6D00C2A0D32229
:100E9B00E4FEEF30E704D2A18002C2A10000000003
:100EAB000000000000000000000000000000000037
:100EBB000000000000D2A0EF25E0FF0000000000C2
:100ECB000000000000000000000000000000000017
:0A0EDB0000000000C2A00EBE08B81F
:010EE50022EA
:100EE600E4FED2A0000000000000000000000000A8
:100EF60000000000000000000000000000EF25E0F8
:100F0600FF30A103430701C2A0000000000000005B
:100F160000000000000000000000000000000000CB
:060F260000000EBE08BC35
:010F2C0022A2
:0410A4007F057E0046
:1010A800E4FDFCEF1FAA0670011E4A70F60DBD0094
:0810B800010CED640C4C70EB1F
:0110C000220D
:02108600A907B8
:10108800E4FBC294E91392941210A4D294E9C31316
:0C109800F90BBB08ED7F057E000210A8DC
:1010C100E4FBC294E9C313F9D29430940343018041
:0910D1001210A40BBB08EBAF01E7
:0110DA0022F3
:10101B00C201D2947F0C7E001210A8C2947F507E26
:10102B00001210A8D2947F0A7E001210A8A29492EC
:06103B00011210A4A20145
:01104100228C
:101042000837FFFFFFFFFFFFFFFF0B2CC0F9A4B023
:10105200999282F88090BF064B0B0B0B0B0B0B0285
:0310620024000067
:1010DB0075A0A0E4F580F5A0F589758A66758CFC82
:0810EB00D28CD2AFD2A980FE25
:100FAC0075A0E07580FFE4F5A075A0C0AF2104A882
:100FBC0007088002C333D8FCF580E4F5A075A0E0E7
:100FCC0074372521F8E6F580E4F5A0E521C39407F4
:080FDC005003052122E4F52178
:010FE40022EA
:080C86008F0B8E0A8D098C080A
:100C8E00750C00750D07E47B0AFAF9F8AF0BAE0A86
:100C9E00AD09AC08120BCEAF03740E250DF8A607E6
:100CAE00AF0BAE0AAD09AC08E47B0AFAF9F8120BE9
:100CBE00CE8F0B8E0A8D098C08E50D150D70021561
:100CCE000CE50D450C70BFE4F50CF50DAF0D740E73
:100CDE002FF8E6701474372FF876FF050DE50D70BA
:100CEE0002050C6408450C70E3C3E50D9408E50C91
:100CFE009400501CAF0D740E2FF8E6242CF8E6FE6F
:100D0E0074372FF8A606050DE50D70DD050C80D99C
:010D1E0022B2
:100D1F00D2B3D2B2D2B1D2B0C2C4C2C2C2B5C2B4BF
:100D2F0020B0047E01801720B1047E02801020B213
:100D3F00047E03800920B3047E0480027E05C2B3C3
:100D4F00C2B2C2B1C2B0D2C4D2C2D2B5D2B420C420
:100D5F00047F01801720C2047F02801020B5047F1A
:100D6F0003800920B4047F0480027F05EE75F00A2A
:100D7F00A42FF523E52214601114601E24027021A4
:100D8F00E5236437601E75220122E5236437601165
:100D9F0075510085235275220222E523B437058051
:040DAF0000E4F52245
:010DB300221D
:03000B00020800E8
:10080000C0E0C0F0C083C082C0D075D000C000C0BE
:0D08100001C002C003C004C005C006C0073F
:10081D000529E52970020528641E45287007F5286D
:10082D00F529120D1FE549147003020A0714700310
:10083D00020AA0147003020B1924036003020B714A
:10084D00E55264374551700302096EE551600302AC
:10085D00096EE552120C6008860C089E0D08B60E46
:10086D0008CE1608E61708FD18091420092B2109D2
:10087D00422209592B0000096E744B2525F876018B
:10088D007551007552370525E525704A0524020975
:10089D006E744B2525F87602755100755237052576
:1008AD00E5257002052402096E744B2525F87603A3
:1008BD007551007552370525E5257002052402098D
:1008CD006E744B2525F87604755100755237052544
:1008DD00E5257002052402096E744B2525F8760571
:1008ED007551007552370525E52570750524807104
:1008FD00744B2525F876067551007552370525E59B
:10090D0025705E0524805A744B2525F876077551A0
:10091D00007552370525E525704705248043744B36
:10092D002525F876087551007552370525E5257092
:10093D00300524802C744B2525F8760975510075EA
:10094D0052370525E525701905248015744B25258D
:10095D00F876007551007552370525E525700205AD
:10096D0024E525640645247058E54B75F00AA42549
:10097D004CF541E54D75F00AA4254EF548E54F754A
:10098D00F00AA42550F54A75240075250075490116
:10099D00E4FD7F8E1210F3E54BC454F0254CFD7F22
:1009AD00841210F3E54DC454F0254EFD7F821210D4
:1009BD00F3E54FC454F02550FD7F801210F3020B68
:1009CD0074742C254BF8E6F537742C254CF8E6F5A8
:1009DD0038853639742C254DF8E6F53A742C254EAC
:1009ED00F8E6F53B85363C742C254FF8E6F53D745D
:0709FD002C2550F8E6F53E41
:100A0400020B74E4FD7F8E1210F37F85120FE58FC5
:100A1400417F83120FE58F487F81120FE58F4AE5EE
:100A240041C4540FF54BE541540FF54CE548C4540B
:100A34000FF54DE548540FF54EE54AC4540FF54FF4
:100A4400E54A540FF550742C254BF8E6F537742C11
:100A5400254CF8E6F538853639742C254DF8E6F53D
:100A64003A742C254EF8E6F53B85363C742C254F1C
:100A7400F8E6F53D742C2550F8E6F53EE552640D94
:100A840045517007754902F551F552E552640E451A
:0C0A9400516003020B74754903020B6BE8
:100AA000C2AF12101BEF4E704E7FCC1210867F44E7
:100AB0001210867526007527007FCC1210867FBE27
:100AC0001210861210C17542008F431210C1754476
:100AD000008F45E5457F00FEEF2543FFE5423EC41C
:100AE000F854F0C868F546EFC4540F48F547AE46D1
:100AF000FFE4FCFD120C86D2AFE552640C45517048
:100B000009754901D2AFF551F552E552640E4551D0
:070B10007062754903D2AFCA
:100B17008052120F717F90120E9B120F2D500612EA
:100B2700106685363C7F03120E9B120F717F911260
:100B37000E9B120EE6120EE6752A008F2B12106618
:100B4700AE2AAF2BE4FCFD120C86E552640C45512E
:100B57007007754901F551F552E552640D4551701D
:100B67000C754902F551F5528003754900120FAC17
:100B7700D007D006D005D004D003D002D001D000D2
:0B0B8700D0D0D082D083D0F0D0E0327C
:100DC0000210DBE493A3F8E493A34003F68001F25E
:100DD00008DFF48029E493A3F85407240CC8C33334
:100DE000C4540F4420C8834004F456800146F6DF03
:100DF000E4800B0102040810204080901042E47E41
:100E0000019360BCA3FF543F30E509541FFEE493F7
:100E1000A360010ECF54C025E060A840B8E493A3BE
:100E2000FAE493A3F8E493A3C8C582C8CAC583CAE9
:100E3000F0A3C8C582C8CAC583CADFE9DEE780BEA1
:01106500008A
:100B920075F008758200EF2FFFEE33FECD33CDCC1A
:100BA20033CCC58233C5829BED9AEC99E58298409D
:100BB2000CF582EE9BFEED9AFDEC99FC0FD5F0D67A
:100BC200E4CEFBE4CDFAE4CCF9A88222B800C1B9A4
:100BD2000059BA002DEC8BF084CFCECDFCE5F0CBE2
:100BE200F97818EF2FFFEE33FEED33FDEC33FCEB1B
:100BF20033FB10D703994004EB99FB0FD8E5E4F9D6
:100C0200FA227818EF2FFFEE33FEED33FDEC33FCC2
:100C1200C933C910D7059BE99A4007EC9BFCE99AB6
:100C2200F90FD8E0E4C9FAE4CCFB2275F010EF2FFB
:100C3200FFEE33FEED33FDCC33CCC833C810D707FB
:100C42009BEC9AE899400AED9BFDEC9AFCE899F836
:0E0C52000FD5F0DAE4CDFBE4CCFAE4C8F922C9
:100C6000D083D082F8E4937012740193700DA3A323
:100C700093F8740193F5828883E473740293686037
:060C8000EFA3A3A380DF37
:00000001FF
