:030000000207AF45
:0C07AF00787FE4F6D8FD7581550207F64E
:100B0700E4FEC297EF1392A3EFC313FFD2970EBE73
:020B170008F0E4
:010B190022B9
:100AF300C29300C29700D29300120B07AF05120BEB
:040B030007C2932270
:1009E000E4FDC29300C29700D29300120B07E4FF0C
:1009F000C297EDC313FD30A303430580D2970FBF09
:100A000008EEC29300C293C29700D29700C2A3001F
:050A1000D2A300AF05B8
:010A150022BE
:10096C00D2A1D2A000000000000000000000000096
:10097C0000000000000000000000000000C2A10008
:10098C00000000000000000000000000000000005B
:0B099C000000000000000000C2A022CC
:100A8300C2A1D2A00000000000000000000000008E
:100A930000000000000000000000000000D2A122BE
:10083B00300004C2A18002D2A10000000000000021
:10084B00000000000000000000000000000000009D
:10085B000000D2A00000000000000000000000001B
:10086B0000000000000000000000000000C2A0D249
:10087B00A1000000000000000000000000000000CC
:0B088B00000000000000000000002240
:10092800D2A100000000000000000000000000004C
:100938000000000000000000000000D2A00000003D
:10094800000000000000000000000000000000009F
:1009580000000000000030A107C2A0120A83C322D1
:04096800C2A0D32234
:10089600E4FEEF30E704D2A18002C2A1000000000E
:1008A6000000000000000000000000000000000042
:1008B6000000000000D2A0EF25E0FF0000000000CD
:1008C6000000000000000000000000000000000022
:0A08D60000000000C2A00EBE08B82A
:0108E00022F5
:1008E100E4FED2A0000000000000000000000000B3
:1008F10000000000000000000000000000EF25E003
:10090100FF30A103430701C2A00000000000000066
:1009110000000000000000000000000000000000D6
:0609210000000EBE08BC40
:0109270022AD
:040A61007F057E008F
:100A6500EF1FAA0670011E4A6013E4FCFDC3ED9456
:0D0A750005EC940050EA0DBD00010C80F06E
:010A82002251
:020AA300A907A1
:100AA500E4FBC294E9139294120A61D294E9C31348
:0C0AB500F90BBB08ED7F057E00020A650E
:100AC100E4FBC294E9C313F9D29430940343018047
:090AD100120A610BBB08EBAF0136
:010ADA0022F9
:100A1600C200D2947F0C7E00120A65C2947F507E7B
:100A260000120A65D2947F0A7E00120A65A2949289
:060A360000120A61A2009B
:010A3C002297
:100A3D00083AFFFFFFFFFFFFFFFF0B2FC0F9A4B028
:100A4D00999282F88090BF064E0B0B0B0B0B0B028D
:030A5D0024000072
:100ADB0075A0A0E4F580F5A0F589758A66758CFC88
:080AEB00D28CD2AFD2A980FE2B
:1009A70075A0E07580FFE4F5A075A0C0AF2104A88D
:1009B70007088002C333D8FCF580E4F5A075A0E0F2
:1009C700743A2521F8E6F580E4F5A0E521C39407FC
:0809D7005003052122E4F52183
:0109DF0022F5
:080681008F0B8E0A8D098C0815
:10068900750C00750D07E47B0AFAF9F8AF0BAE0A91
:10069900AD09AC081205C9AF03740E250DF8A607FC
:1006A900AF0BAE0AAD09AC08E47B0AFAF9F81205FA
:1006B900C98F0B8E0A8D098C08E50D150D70021571
:1006C9000CE50D450C70BFE4F50CF50DAF0D740E7E
:1006D9002FF8E67014743A2FF876FF050DE50D70C2
:1006E90002050C6408450C70E3C3E50D9408E50C9C
:1006F9009400501CAF0D740E2FF8E6242FF8E6FE77
:10070900743A2FF8A606050DE50D70DD050C80D9A4
:0107190022BD
:10071A00D2B3D2B2D2B1D2B0C2C4C2C2C2B5C2B4CA
:10072A0020B0047E01801720B1047E02801020B21E
:10073A00047E03800920B3047E0480027E05C2B3CE
:10074A00C2B2C2B1C2B0D2C4D2C2D2B5D2B420C42B
:10075A00047F01801720C2047F02801020B5047F25
:10076A0003800920B4047F0480027F05EE75F00A35
:10077A00A42FF523E52214601114601E24027021AF
:10078A00E5236437601E75220122E5236437601170
:10079A0075540085235575220222E523B437058056
:0407AA0000E4F52250
:0107AE002228
:03000B0002000EE2
:10000E00C0E0C0F0C083C082C0D075D000C000C0B8
:0D001E0001C002C003C004C005C006C00739
:10002B00052CE52C7002052B641E452B7007F52B58
:10003B00F52C12071AE54C14700302021B14700303
:10004B000202E714700302038B1470030204D7241B
:06005B0004600302056CC5
:10006100E555643745547003020182E5546003028B
:100071000182E55512065B009A0C00B20D00CA0E12
:1000810000E21600FA17011118012820013F210191
:100091005622016D2B00000182744E2525F8760150
:1000A1007554007555370525E525704A052402016B
:1000B10082744E2525F8760275540075553705254D
:1000C100E52570020524020182744E2525F8760388
:1000D1007554007555370525E52570020524020183
:1000E10082744E2525F8760475540075553705251B
:1000F100E52570020524020182744E2525F8760556
:100101007554007555370525E525707505248071F1
:10011100744E2525F876067554007555370525E585
:1001210025705E0524805A744E2525F8760775548E
:10013100007555370525E525704705248043744E24
:100141002525F876087554007555370525E5257080
:10015100300524802C744E2525F8760975540075D8
:1001610055370525E525701905248015744E25257B
:10017100F876007554007555370525E5257002059B
:1001810024E525640645247058E54E75F00AA4253A
:100191004FF544E55075F00AA42551F54BE552752C
:1001A100F00AA42553F54D752400752500754C0101
:1001B100E4FD7F8E120AF3E54EC454F0254FFD7F16
:1001C10084120AF3E550C454F02551FD7F82120ACE
:1001D100F3E552C454F02553FD7F80120AF3020562
:1001E1006F742F254EF8E6F53A742F254FF8E6F592
:1001F1003B85393C742F2550F8E6F53D742F255188
:10020100F8E6F53E85393F742F2552F8E6F540743E
:070211002F2553F8E6F5412B
:1002180002056FE4FD7F8E120AF37F851209E08FD5
:10022800447F831209E08F4B7F811209E08F4DE5EF
:1002380044C4540FF54EE544540FF54FE54BC454F0
:100248000FF550E54B540FF551E54DC4540FF552D9
:10025800E54D540FF553742F254EF8E6F53A742FF3
:10026800254FF8E6F53B85393C742F2550F8E6F51F
:100278003D742F2551F8E6F53E85393F742F2552F8
:10028800F8E6F540742F2553F8E6F541E555640D79
:1002980045547007754C02F554F555E555640E45FF
:1002A800547007754C03F554F555E55564164554D7
:1002B8007007754C04F554F555E555642C455460A4
:1002C8000302056FF54CF554F55575530A75520A36
:1002D80075510A75500A754F0A754E0A02056F1254
:1002E8000A167FCC120AA37F44120AA3120A167FA9
:1002F800CC120AA37FBE120AA3120AC17545008F49
:1003080046120AC17547008F48E5487F00FEEF2571
:1003180046FFE5453EC4F854F0C868F549EFC454B3
:100328000F48F54A645545497004F549F54AC3E54F
:100338004A9419E5499400400875A0A07580F0809A
:100348000675A0A075800075A000AE49AF4AE4FC10
:10035800FD120681E555640C45547007754C01F58E
:1003680054F555E555640E45547007754C03F5541E
:10037800F555E55564164554600302056F754C0440
:1003880002056612096C7F901208961209287F01EF
:1003980012089612092812096C7F91120896120900
:1003A800281208E1752D008F2E120A83D3E52E94AA
:1003B8000AE52D9400500975A08075800002048319
:1003C800D3E52E940AE52D94004014D3E52E942805
:1003D800E52D9400500975A080758001020483D32F
:1003E800E52E9428E52D94004013D3E52E9450E58E
:1003F8002D9400500875A080758003807ED3E52E6B
:100408009450E52D94004013D3E52E9478E52D946F
:1004180000500875A0807580078060D3E52E947819
:10042800E52D94004013D3E52E94A0E52D940050BB
:100438000875A08075800F8042D3E52E94A0E52D25
:1004480094004013D3E52E94C8E52D940050087508
:10045800A08075801F8024D3E52E94C8E52D9400D4
:100468004013D3E52E94F0E52D9400500875A08034
:1004780075803F800675A08075807F75A000AE2DC1
:10048800AF2EE4FCFD120681E555640C4554700F4F
:10049800754C0175A0807580FFF5A0F554F555E5FC
:1004A80055640D4554700F754C0275A0807580FF1A
:1004B800F5A0F554F555E555641645546003020555
:0F04C8006F754C0475A0807580FFF5A002056666
:1004D70012096C7FA0120896120928E4FF120896E9
:1004E70012092812096C7FA112089612092812080E
:1004F700E18F26C20012083B120A83AF26E4FCFDF7
:10050700FE1206810528E528700205276464452741
:100517007024F527F528052612096C7FA012089686
:10052700120928E4FF120896120928AF2612089626
:10053700120928120A83E555640C45547007754C57
:1005470001F554F555E555640D45547007754C0292
:10055700F554F555E555640E4554700C754C03F587
:0305670054F555F3
:08056A008003754C001209A783
:10057200D007D006D005D004D003D002D001D000DD
:0B058200D0D0D082D083D0F0D0E03287
:1007BB00020ADBE493A3F8E493A34003F68001F26F
:1007CB0008DFF48029E493A3F85407240CC8C3333F
:1007DB00C4540F4420C8834004F456800146F6DF0E
:1007EB00E4800B0102040810204080900A3DE47E57
:1007FB00019360BCA3FF543F30E509541FFEE49303
:10080B00A360010ECF54C025E060A840B8E493A3C9
:10081B00FAE493A3F8E493A3C8C582C8CAC583CAF4
:10082B00F0A3C8C582C8CAC583CADFE9DEE780BEAC
:010A60000095
:10058D0075F008758200EF2FFFEE33FECD33CDCC25
:10059D0033CCC58233C5829BED9AEC99E5829840A8
:1005AD000CF582EE9BFEED9AFDEC99FC0FD5F0D685
:1005BD00E4CEFBE4CDFAE4CCF9A88222B800C1B9AF
:1005CD000059BA002DEC8BF084CFCECDFCE5F0CBED
:1005DD00F97818EF2FFFEE33FEED33FDEC33FCEB26
:1005ED0033FB10D703994004EB99FB0FD8E5E4F9E1
:1005FD00FA227818EF2FFFEE33FEED33FDEC33FCCE
:10060D00C933C910D7059BE99A4007EC9BFCE99AC1
:10061D00F90FD8E0E4C9FAE4CCFB2275F010EF2F06
:10062D00FFEE33FEED33FDCC33CCC833C810D70706
:10063D009BEC9AE899400AED9BFDEC9AFCE899F841
:0E064D000FD5F0DAE4CDFBE4CCFAE4C8F922D4
:10065B00D083D082F8E4937012740193700DA3A32E
:10066B0093F8740193F5828883E473740293686042
:06067B00EFA3A3A380DF42
:00000001FF
