:030000000206DD18
:0C06DD00787FE4F6D8FD758153020724F5
:100A3500E4FEC297EF1392A3EFC313FFD2970EBE46
:020A450008F0B7
:010A4700228C
:100A2100C29300C29700D29300120A35AF05120A91
:040A310035C2932215
:10090E00E4FDC29300C29700D29300120A35E4FFB1
:10091E00C297EDC313FD30A303430580D2970FBFDB
:10092E0008EEC29300C293C29700D29700C2A300F2
:05093E00D2A300AF058B
:010943002291
:10089A00D2A1D2A000000000000000000000000069
:1008AA0000000000000000000000000000C2A100DB
:1008BA00000000000000000000000000000000002E
:0B08CA000000000000000000C2A0229F
:1009B100C2A1D2A000000000000000000000000061
:1009C10000000000000000000000000000D2A12291
:10076900300004C2A18002D2A100000000000000F4
:100779000000000000000000000000000000000070
:100789000000D2A0000000000000000000000000EE
:1007990000000000000000000000000000C2A0D21C
:1007A900A10000000000000000000000000000009F
:0B07B900000000000000000000002213
:10085600D2A100000000000000000000000000001F
:100866000000000000000000000000D2A000000010
:100876000000000000000000000000000000000072
:1008860000000000000030A107C2A01209B1C32277
:04089600C2A0D32207
:1007C400E4FEEF30E704D2A18002C2A100000000E1
:1007D4000000000000000000000000000000000015
:1007E4000000000000D2A0EF25E0FF0000000000A0
:1007F40000000000000000000000000000000000F5
:0A08040000000000C2A00EBE08B8FC
:01080E0022C7
:10080F00E4FED2A000000000000000000000000085
:10081F0000000000000000000000000000EF25E0D5
:10082F00FF30A103430701C2A00000000000000039
:10083F0000000000000000000000000000000000A9
:06084F0000000EBE08BC13
:010855002280
:04098F007F057E0062
:10099300EF1FAA0670011E4A6013E4FCFDC3ED9429
:0D09A30005EC940050EA0DBD00010C80F041
:0109B0002224
:0209D100A90774
:1009D300E4FBC294E913929412098FD294E9C313EE
:0C09E300F90BBB08ED7F057E00020993B4
:1009EF00E4FBC294E9C313F9D2943094034301801A
:0909FF0012098F0BBB08EBAF01DC
:010A080022CB
:10094400C200D2947F0C7E00120993C2947F507E21
:1009540000120993D2947F0A7E00120993A2949202
:060964000012098FA20041
:01096A00226A
:10096B000838FFFFFFFFFFFFFFFF0B2DC0F9A4B0FF
:10097B00999282F88090BF064C0B0B0B0B0B0B0262
:03098B0024000045
:100A090075A0A0E4F580F5A0F589758A66758CFC5A
:080A1900D28CD2AFD2A980FEFD
:1008D50075A0E07580FFE4F5A075A0C0AF2104A860
:1008E50007088002C333D8FCF580E4F5A075A0E0C5
:1008F50074382521F8E6F580E4F5A0E521C39407D1
:080905005003052122E4F52155
:01090D0022C7
:0805AF008F0B8E0A8D098C08E8
:1005B700750C00750D07E47B0AFAF9F8AF0BAE0A64
:1005C700AD09AC081204F7AF03740E250DF8A607A2
:1005D700AF0BAE0AAD09AC08E47B0AFAF9F81204CE
:1005E700F78F0B8E0A8D098C08E50D150D70021516
:1005F7000CE50D450C70BFE4F50CF50DAF0D740E51
:100607002FF8E6701474382FF876FF050DE50D7096
:1006170002050C6408450C70E3C3E50D9408E50C6E
:100627009400501CAF0D740E2FF8E6242DF8E6FE4B
:1006370074382FF8A606050DE50D70DD050C80D979
:010647002290
:10064800D2B3D2B2D2B1D2B0C2C4C2C2C2B5C2B49D
:1006580020B0047E01801720B1047E02801020B2F1
:10066800047E03800920B3047E0480027E05C2B3A1
:10067800C2B2C2B1C2B0D2C4D2C2D2B5D2B420C4FE
:10068800047F01801720C2047F02801020B5047FF8
:1006980003800920B4047F0480027F05EE75F00A08
:1006A800A42FF523E52214601114601E2402702182
:1006B800E5236437601E75220122E5236437601143
:1006C80075520085235375220222E523B43705802D
:0406D80000E4F52223
:0106DC0022FB
:03000B0002000EE2
:10000E00C0E0C0F0C083C082C0D075D000C000C0B8
:0D001E0001C002C003C004C005C006C00739
:10002B00052AE52A70020529641E45297007F52962
:10003B00F52A120648E54A14700302021B147003DA
:10004B000202E714700302038B14700302040524ED
:06005B0004600302049A98
:10006100E553643745527003020182E55260030291
:100071000182E553120589009A0C00B20D00CA0EE7
:1000810000E21600FA17011118012820013F210191
:100091005622016D2B00000182744C2525F8760152
:1000A1007552007553370525E525704A052402016F
:1000B10082744C2525F87602755200755337052553
:1000C100E52570020524020182744C2525F876038A
:1000D1007552007553370525E52570020524020187
:1000E10082744C2525F87604755200755337052521
:1000F100E52570020524020182744C2525F8760558
:100101007552007553370525E525707505248071F5
:10011100744C2525F876067552007553370525E58B
:1001210025705E0524805A744C2525F87607755292
:10013100007553370525E525704705248043744C28
:100141002525F876087552007553370525E5257084
:10015100300524802C744C2525F8760975520075DC
:1001610053370525E525701905248015744C25257F
:10017100F876007552007553370525E5257002059F
:1001810024E525640645247058E54C75F00AA4253C
:100191004DF542E54E75F00AA4254FF549E5507538
:1001A100F00AA42551F54B752400752500754A0107
:1001B100E4FD7F8E120A21E54CC454F0254DFD7FEC
:1001C10084120A21E54EC454F0254FFD7F82120AA4
:1001D10021E550C454F02551FD7F80120A2102040B
:1001E1009D742D254CF8E6F538742D254DF8E6F56E
:1001F1003985373A742D254EF8E6F53B742D254F98
:10020100F8E6F53C85373D742D2550F8E6F53E744A
:070211002D2551F8E6F53F31
:1002180002049DE4FD7F8E120A217F8512090E8F4C
:10022800427F8312090E8F497F8112090E8F4BE599
:1002380042C4540FF54CE542540FF54DE549C454FA
:100248000FF54EE549540FF54FE54BC4540FF550E3
:10025800E54B540FF551742D254CF8E6F538742DFF
:10026800254DF8E6F53985373A742D254EF8E6F52B
:100278003B742D254FF8E6F53C85373D742D255008
:10028800F8E6F53E742D2551F8E6F53FE553640D83
:1002980045527007754A02F552F553E553640E4509
:1002A800527007754A03F552F553E55364164552E3
:1002B8007007754A04F552F553E553642C455260AE
:1002C8000302049DF54AF552F55375510A75500A13
:1002D800754F0A754E0A754D0A754C0A02049D122F
:1002E80009447FCC1209D17F441209D11209447FF5
:1002F800CC1209D17FBE1209D11209EF7543008FC4
:10030800441209EF7545008F46E5467F00FEEF254C
:1003180044FFE5433EC4F854F0C868F547EFC454B9
:100328000F48F548645545477004F547F548C3E557
:10033800489419E5479400400875A0A07580F0809E
:100348000675A0A075800075A000AE47AF48E4FC14
:10035800FD1205AFE553640C45527007754A01F567
:1003680052F553E553640E45527007754A03F5522A
:10037800F553E55364164552600302049D754A041B
:1003880002049412089A7F901207C41208567F013B
:100398001207C412085612089A7F911207C412084D
:1003A8005612080F752B008F2C1209B1AE2BAF2CEB
:1003B800E4FCFD1205AFE553640C4552700F754A15
:1003C8000175A0807580FFF5A0F552F553E55364DB
:1003D8000D4552700F754A0275A0807580FFF5A013
:1003E800F552F553E55364164552600302049D75B2
:0D03F8004A0475A0807580FFF5A0020494F2
:1004050012089A7FA01207C4120856E4FF1207C407
:1004150012085612089A7FA11207C412085612082C
:100425000F8F26C2001207691209B1AF26E4FCFD41
:10043500FE1205AF0528E5287002052764644527E7
:100445007024F527F528052612089A7FA01207C4FF
:10045500120856E4FF1207C4120856AF261207C445
:100465001208561209B1E553640C45527007754AD6
:1004750001F552F553E553640D45527007754A026F
:10048500F552F553E553640E4552700C754A03F564
:0304950052F553CA
:080498008003754A001208D52B
:1004A000D007D006D005D004D003D002D001D000B0
:0B04B000D0D0D082D083D0F0D0E0325A
:1006E900020A09E493A3F8E493A34003F68001F214
:1006F90008DFF48029E493A3F85407240CC8C33312
:10070900C4540F4420C8834004F456800146F6DFE0
:10071900E4800B010204081020408090096BE47EFC
:10072900019360BCA3FF543F30E509541FFEE493D5
:10073900A360010ECF54C025E060A840B8E493A39C
:10074900FAE493A3F8E493A3C8C582C8CAC583CAC7
:10075900F0A3C8C582C8CAC583CADFE9DEE780BE7F
:01098E000068
:1004BB0075F008758200EF2FFFEE33FECD33CDCCF8
:1004CB0033CCC58233C5829BED9AEC99E58298407B
:1004DB000CF582EE9BFEED9AFDEC99FC0FD5F0D658
:1004EB00E4CEFBE4CDFAE4CCF9A88222B800C1B982
:1004FB000059BA002DEC8BF084CFCECDFCE5F0CBC0
:10050B00F97818EF2FFFEE33FEED33FDEC33FCEBF8
:10051B0033FB10D703994004EB99FB0FD8E5E4F9B3
:10052B00FA227818EF2FFFEE33FEED33FDEC33FCA0
:10053B00C933C910D7059BE99A4007EC9BFCE99A94
:10054B00F90FD8E0E4C9FAE4CCFB2275F010EF2FD9
:10055B00FFEE33FEED33FDCC33CCC833C810D707D9
:10056B009BEC9AE899400AED9BFDEC9AFCE899F814
:0E057B000FD5F0DAE4CDFBE4CCFAE4C8F922A7
:10058900D083D082F8E4937012740193700DA3A301
:1005990093F8740193F5828883E473740293686015
:0605A900EFA3A3A380DF15
:00000001FF
