:030000000203C731
:0C03C700787FE4F6D8FD75814802040E32
:10085600E4FEC297EF1392A3EFC313FFD2970EBE27
:0208660008F098
:01086800226D
:10084200C29300C29700D29300120856AF05120855
:0408520056C29322D5
:10070E00E4FDC29300C29700D29300120856E4FF94
:10071E00C297EDC313FD30A303430580D2970FBFDD
:10072E0008EEC29300C293C29700D29700C2A300F4
:05073E00D2A300AF058D
:010743002293
:1006D300D2A1D2A000000000000000000000000032
:1006E30000000000000000000000000000C2A100A4
:1006F30000000000000000000000000000000000F7
:0B0703000000000000000000C2A02267
:1007D200C2A1D2A000000000000000000000000042
:1007E20000000000000000000000000000D2A12272
:10045300300104C2A18002D2A1000000000000000C
:100463000000000000000000000000000000000089
:100473000000D2A000000000000000000000000007
:1004830000000000000000000000000000C2A0D235
:10049300A1000000000000000000000000000000B8
:0B04A30000000000000000000000222C
:10058E00D2A10000000000000000000000000000EA
:10059E000000000000000000000000D2A0000000DB
:1005AE00000000000000000000000000000000003D
:1005BE0000000000000030A107C2A01207D2C32223
:0405CE00C2A0D322D2
:1004FC00E4FEEF30E704D2A18002C2A100000000AC
:10050C0000000000000000000000000000000000DF
:10051C000000000000D2A0EF25E0FF00000000006A
:10052C0000000000000000000000000000000000BF
:0A053C0000000000C2A00EBE08B8C7
:010546002292
:10054700E4FED2A000000000000000000000000050
:1005570000000000000000000000000000EF25E0A0
:10056700FF30A103430701C2A00000000000000004
:100577000000000000000000000000000000000074
:0605870000000EBE08BCDE
:01058D00224B
:1007F2000836FFFFFFFFFFFFFFFF0B2BC0F9A4B07E
:0F080200999282F88090BF064200080300000020
:1004AE0075A0A0E4F580F5A0F589758CFC758A66BB
:1004BE00D28CD2A9D2AFFD7F8E120842E542C4542F
:1004CE00F02543FD7F84120842E544C454F02545CF
:1004DE00FD7F82120842E546C454F02547FD7F8019
:0E04EE001208427D32E4FF120657D20080FE53
:03000B000201E10E
:1001E100C0E0C0F0C083C082C0D075D000C000C0E4
:0D01F10001C002C003C004C005C006C00765
:1001FE000522E52270020521641E45217007F521B6
:10020E00F5221203350524E52470020523646445A6
:10021E00237022F523F5241206967F03120774AC81
:10022E0007E412011E7B147AAE79C7783E12000ED7
:10023E001201528F2AE5401460401470030202DC52
:10024E0024026003020314E4FF1207448F291206EE
:10025E0096E52AC395295004D2018002C2011208E4
:10026E002AE54824E8600B04705F75483775400234
:10027E008057754837754001804FE4FF1207448F51
:10028E0029120696E52AC39529500B300004D20197
:10029E008006C2018002C201120812E54824EA60FB
:1002AE001114601814601C2403701E754837C201A7
:1002BE008005754837D20112082A800D754837B26D
:1002CE00008006754837754000120616803BE548DB
:1002DE0024EA6011146015146021240370237548FC
:1002EE00371529801C75483705298015754837AD97
:1002FE0029E4FF1206577540008006754837754091
:0C030E00011207A480037540001205D204
:10031A00D007D006D005D004D003D002D001D00037
:0B032A00D0D0D082D083D0F0D0E032E1
:10061600742B2542F8E6F536742B2543F8E6F537B4
:10062600853538742B2544F8E6F539742B2545F8BD
:10063600E6F53A753BFFE52A75F00A84242BF8E6C1
:10064600F53CE52A75F00A84742B25F0F8E6F53DAD
:010656002281
:1007A400E52975F00A84AFF0E52975F00A84AD35C2
:1007B4008D378D36753BFF753AFF7539FF7538FFF8
:0D07C400242BF8E6F53C742B2FF8E6F53DEC
:0107D1002205
:1005D20075A0E07580FFE4F5A075A0C0AF2604A861
:1005E20007088002C333D8FCF580E4F5A075A0E0CB
:1005F20074362FF8E6F580E4F5A0C3E5269407E506
:1006020025940050090526E5267008052522E4F503
:0306120025F526A5
:0106150022C2
:10033500D2B3D2B2D2B1D2B0C2B4C2B5C2C2C2C4B3
:1003450020B0047E01801720B1047E02801020B207
:10035500047E03800920B3047E0480027E05C2B3B7
:10036500C2B2C2B1C2B0D2B4D2B5D2C2D2C420C414
:10037500047F01801720C2047F02801020B5047F0E
:1003850003800920B4047F0480027F05EE75F00A1E
:10039500A42FF528E52714601114601B2402701E94
:1003A500E5286437601B75270122E528643760114D
:1003B50075270285284822E528B437058000E4F52D
:0103C5002710
:0103C6002214
:100696007F8512070E8F3E7F8312070E8F3F7F8165
:1006A60012070E8F41E53EC4540FF542E53E540F46
:1006B600F543E53FC4540FF544E53F540FF545E5D2
:0D06C60041C4540FF546E541540FF547229D
:020744008F0A1A
:100746001206D37FA01204FC12058EAF0A1204FC17
:1007560012058E1206D37FA11204FC12058E120515
:0D076600478F0BC2011204531207D2AF0BD4
:010773002263
:040657008F0A8D0B6E
:10065B001206D37FA01204FC12058EAF0A1204FC03
:10066B0012058EAF0B1204FC12058E1207D2E4FF9B
:10067B00FEE4FDFC0DBD00010CED64964C70F50F16
:0A068B00BF00010EEF64964E70E709
:010695002242
:020774008F0AEA
:100776001206D37F901204FC12058EAF0A1204FCF7
:1007860012058E1206D37F911204FC12058E1205F5
:0D079600478F0BC2011204531207D2AF0BA4
:0107A3002233
:10081200E5A0541F44A0F5A030010343804020010D
:08082200035380BF53A01F2205
:10082A00E5A0541F44A0F5A0300103438010200125
:08083A00035380EF53A01F22BD
:10000E00EC4D6011E8497017ED33EC3304600DE4EC
:10001E00FCFFFEFD22E933E8330470F80201BE1244
:10002E00018958046009E4CC248150062850090245
:10003E0001C82840030201C5C0E0EB4A7044B980F4
:10004E0006D0E0FB0201B4EF4E701CBD8008EBFF42
:10005E00EAFEE9FD80EBE98DF0A4FEE5F00200F783
:10006E00E9CDF9EAFEEBFFEF89F0A4FCE5F0CE89CD
:10007E00F0A42EFFE435F0CD89F0A42DFEE435F08A
:10008E008067EF4E7005BD80D780C3EF8BF0A4ACB8
:10009E00F0EE8BF0A42CFCE435F0F8EF8AF0A42CF3
:1000AE00E5F038FCE433CB8DF0A42CFCE5F03BF806
:1000BE00EE8AF0A42CFCE5F038F8E433CF89F0A4F6
:1000CE002CFCE5F038CF3400CE89F0A42FFFE5F0FC
:1000DE003EFEE433C98DF0A42EFEE5F039CD8AF054
:1000EE00A42FFFE5F03EFEE43DFD33D0E0FB5007CC
:1000FE000BBB000F0201C8EC2CFCEF33FFEE33FEFE
:06010E00ED33FD0201A02B
:1001140075F020800E75F010800575F0087D007E66
:10012400007F003392D530D5031201D3EC33401055
:10013400EF33FFEE33FEED33FDEC33FCD5F0ED226F
:0E014400E5F0247EA2D513CC92E7CDCEFF22AB
:10015200EDD2E7CD33EC3392D524814006E4FFFEA5
:10016200FDFC22FCE4CFCECDCC24E0501174FF8004
:10017200EDC3CC13CCCD13CDCE13CECF13CF0470A1
:07018200F030D5DE0201D3CD
:10018900E9D2E7C933E833F892D5EDD2E7CD33ECBC
:0701990033FC5002B2D52235
:1001A000EC30E7100FBF000C0EBE00080DBD0004C0
:1001B0000BEB6014A2D5EB13FCED92E7FD2274FF6C
:1001C000FCFDFEFF22E480F8A2D574FF13FC7D80C5
:0301D000E480EFD9
:1003D3000204AEE493A3F8E493A34003F68001F28E
:1003E30008DFF48029E493A3F85407240CC8C3332B
:1003F300C4540F4420C8834004F456800146F6DFFA
:10040300E4800B01020408102040809007F2E47E90
:10041300019360BCA3FF543F30E509541FFEE493EE
:10042300A360010ECF54C025E060A840B8E493A3B5
:10043300FAE493A3F8E493A3C8C582C8CAC583CAE0
:10044300F0A3C8C582C8CAC583CADFE9DEE780BE98
:0108110000E6
:0E01D300C3E49FFFE49EFEE49DFDE49CFC223D
:00000001FF
