:030000000201E218
:0C01E200787FE4F6D8FD75814C020229FC
:10049800D2A1D2A00000000000000000000000006F
:1004A80000000000000000000000000000C2A100E1
:1004B8000000000000000000000000000000000034
:0B04C8000000000000000000C2A022A5
:10055D00C2A1D2A0000000000000000000000000B9
:10056D0000000000000000000000000000D2A122E9
:10026E00300204C2A18002D2A100000000000000F2
:10027E000000000000000000000000000000000070
:10028E000000D2A0000000000000000000000000EE
:10029E0000000000000000000000000000C2A0D21C
:1002AE00A10000000000000000000000000000009F
:0B02BE00000000000000000000002213
:10045400D2A1000000000000000000000000000025
:100464000000000000000000000000D2A000000016
:100474000000000000000000000000000000000078
:1004840000000000000030A107C2A012055DC322D5
:04049400C2A0D3220D
:1003C200E4FEEF30E704D2A18002C2A100000000E7
:1003D200000000000000000000000000000000001B
:1003E2000000000000D2A0EF25E0FF0000000000A6
:1003F20000000000000000000000000000000000FB
:0A04020000000000C2A00EBE08B802
:01040C0022CD
:10040D00E4FED2A00000000000000000000000008B
:10041D0000000000000000000000000000EF25E0DB
:10042D00FF30A103430701C2A0000000000000003F
:10043D0000000000000000000000000000000000AF
:06044D0000000EBE08BC19
:010453002286
:10057D000B34C0F9A4B0999282F88090BF083FFF68
:07058D00FFFFFFFFFFFFFF6E
:10037100C202120595C2021205ACE4F589758A66BE
:10038100758CFCD28CD2A9D2AFFF7E08783F74FF66
:10039100F608DEFC7E007F08D2007532007533015D
:1003A1001204D37549008F4A120501752E008F2F53
:1003B100E5487006E54760F88000E4F547F54880B8
:0103C100EF4C
:03000B0002001ED2
:10001E00C0E0C0F0C083C082C0D075D000C000C0A8
:0D002E0001C002C003C004C005C006C00729
:10003B000525E525B41E067525001202C912031D00
:0E004B00E548600302018FE547600302018F64
:10005900E522652F7004E521652E600302018F20DA
:10006900000302018FE5326003020189E53324FEB2
:10007900604614607914700302014424036003028A
:100089000189AF247401A807088002C333D8FCF59D
:1000990027C3E5249408E5239400500B0524E5249F
:1000A9007049052302018F7523007524000533E586
:1000B900337002053202018FAF247480A8070880CB
:1000C90002C313D8FCF527C3E5249408E52394005B
:1000D900500B0524E5247002052302018F752300C6
:1000E9007524000533E5337002053202018FE524DA
:1000F9004523700575277E801DE52464014523701D
:10010900057527BD8010E524640145237005752711
:10011900DB80037527E7C3E5249404E523940050A5
:100129000A0524E52470020523805B7523007524E4
:10013900000533E53370020532804BE52445237011
:10014900057527E7801DE52464014523700575279A
:10015900DB8010E5246401452370057527BD800304
:1001690075277EC3E5249404E5239400500A0524E9
:10017900E52470120523800E752300752400800084
:0601890075320075330120
:10018F00E5484547703230002F0526E526B52D127C
:10019F00E4B52C0EE5A0541F4480F5A07580FF53E5
:1001AF00A01FE526B40A11752600E5A0541F448050
:0801BF00F5A085278053A01F65
:1001C700D007D006D005D004D003D002D001D0008C
:0B01D700D0D0D082D083D0F0D0E03236
:03001B00020003DD
:0100030032CA
:1002C90020B305752804801B20B205752803801307
:1002D90020B105752802800B20B00575280180031F
:1002E900752805E52914601114601E24027021E5A2
:1002F900286405601E75290122E5286405601175C9
:100309004B0085284C75290222E528B40505800093
:03031900E4F529DF
:01031C0022BE
:0100040022D9
:0100050022D8
:10031D00E5A0541F44E0F5A07580FF53A01FE5A094
:10032D00541F44C0F5A0AF2B7401A807088002C369
:10033D0033D8FCF58053A01FE5A0541F44E0F5A071
:10034D00743F2FF8E6F58053A01FC3E52B9407E506
:10035D002A94005009052BE52B7008052A22E4F597
:03036D002AF52B43
:01037000226A
:10059500E5A0541F44A0300206F5A0D2848004F5DE
:0705A500A0C28453A01F2235
:1005AC00E5A0541F44A0300206F5A0D2868004F5C5
:0705BC00A0C28653A01F221C
:1004D3001204987F901203C21204547F031203C2C2
:1004E3001204541204987F911203C212045412048A
:0D04F3000D8F09C20212026E12055DAF09E5
:0105000022D8
:100501001204987FA01203C2120454E4FF1203C222
:100511001204541204987FA11203C212045412044B
:0D0521000D8F09C20212026E12055DAF09B6
:01052E0022AA
:02052F008F0833
:100531001204987FA01203C2120454E4FF1203C2F2
:10054100120454AF081203C2120454C20212026E02
:0B05510012055D7F3C7E87DEFEDFFCB4
:01055C00227C
:1001EE00020371E493A3F8E493A34003F68001F2B3
:1001FE0008DFF48029E493A3F85407240CC8C33312
:10020E00C4540F4420C8834004F456800146F6DFE0
:10021E00E4800B010204081020408090057DE47EEE
:10022E00019360BCA3FF543F30E509541FFEE493D5
:10023E00A360010ECF54C025E060A840B8E493A39C
:10024E00FAE493A3F8E493A3C8C582C8CAC583CAC7
:10025E00F0A3C8C582C8CAC583CADFE9DEE780BE7F
:010594000066
:00000001FF
