:030000000207CB29
:0C07CB00787FE4F6D8FD75815F0208120B
:100BC100E4FEC297EF1392A3EFC313FFD2970EBEB9
:020BD10008F02A
:010BD30022FF
:100BAD00C29300C29700D29300120BC1AF05120B76
:040BBD00C1C29322FC
:100A8200E4FDC29300C29700D29300120BC1E4FFAF
:100A9200C297EDC313FD30A303430580D2970FBF66
:100AA20008EEC29300C293C29700D29700C2A3007D
:050AB200D2A300AF0516
:010AB700221C
:100A1000D2A1D2A0000000000000000000000000F1
:100A200000000000000000000000000000C2A10063
:100A300000000000000000000000000000000000B6
:0B0A40000000000000000000C2A02227
:100B6100C2A1D2A0000000000000000000000000AF
:100B710000000000000000000000000000D2A122DF
:10085700300104C2A18002D2A10000000000000004
:100867000000000000000000000000000000000081
:100877000000D2A0000000000000000000000000FF
:1008870000000000000000000000000000C2A0D22D
:10089700A1000000000000000000000000000000B0
:0B08A700000000000000000000002224
:10094400D2A1000000000000000000000000000030
:100954000000000000000000000000D2A000000021
:100964000000000000000000000000000000000083
:1009740000000000000030A107C2A0120B61C322D6
:04098400C2A0D32218
:1008B200E4FEEF30E704D2A18002C2A100000000F2
:1008C2000000000000000000000000000000000026
:1008D2000000000000D2A0EF25E0FF0000000000B1
:1008E2000000000000000000000000000000000006
:0A08F20000000000C2A00EBE08B80E
:0108FC0022D9
:1008FD00E4FED2A000000000000000000000000097
:10090D0000000000000000000000000000EF25E0E6
:10091D00FF30A103430701C2A0000000000000004A
:10092D0000000000000000000000000000000000BA
:06093D0000000EBE08BC24
:010943002291
:100B16000843FFFFFFFFFFFFFFFF0C37C0F9A4B03C
:100B2600999282F88090BFFF065A0C0C0C0C0C0CA4
:080B360002210000022700006B
:1005DB0075A0A0E4F580F5A0F589758A66758CFC8D
:1005EB00C28DD28CD2A9D2AFF54C754D06754E0586
:1005FB00754F09F550F551120AE8C2AFE4752E415B
:10060B00F52DF52CF52B75322BF531F530F52F75C6
:10061B003615F535F534F533AD2EFF120B3F7F2C28
:10062B007E017D2C7C01D3ED9400EC94004007ED12
:10063B001D70F31C80F0EF1F70011EEF4E70E7ADC5
:10064B00327F01120B3F7E017F2C7C017D2CD3ED81
:10065B009400EC94004007ED1D70F31C80F0EF1F2D
:10066B0070011EEF4E70E7AD367F02120B3F7E011D
:10067B007F2C7C017D2CD3ED9400EC94004007ED96
:10068B001D70F31C80F0EF1F70011EEF4E70E7D250
:03069B00AF80FE2F
:08069E008F0B8E0A8D098C08F8
:1006A600E4F514F515E47B0AFAF9F8AF0BAE0AADDA
:1006B60009AC08120512AF03C374079515240CF88C
:1006C600A607AF0BAE0AAD09AC08E47B0AFAF9F847
:1006D6001205128F0B8E0A8D098C080515E515700B
:1006E6000205146408451470BCE4F514F515AF153D
:1006F600740C2FF8E6701474432FF876FF0515E591
:1007060015700205146408451470E3C3E5159408D2
:10071600E5149400501CAF15740C2FF8E62437F836
:10072600E6FE74432FF8A6060515E51570DD0514DB
:0207360080D968
:01073800229E
:1009880075A0E07580FFE4F5A075A0C0AF2204A8AB
:1009980007088002C333D8FCF580E4F5A075A0E011
:1009A80074432FF8E6F580E4F5A0C3E5229407E543
:1009B80021940050090522E5227008052122E4F55A
:0309C80021F522F4
:0109CB002209
:10073900D2B3D2B2D2B1D2B0C2C4C2C2C2B5C2B4AB
:1007490020B0047E01801720B1047E02801020B2FF
:10075900047E03800920B3047E0480027E05C2B3AF
:10076900C2B2C2B1C2B0D2C4D2C2D2B5D2B420C40C
:10077900047F01801720C2047F02801020B5047F06
:1007890003800920B4047F0480027F05EE75F00A16
:10079900A42FF524E52314601114601B2402701E94
:1007A900E5246437601B75230122E5246437600E54
:1007B90085245975230222E524B437058000E4F520
:0107C900230C
:0107CA00220C
:03000B0002000EE2
:10000E00C0E0C0F0C083C082C0D075D000C000C0B8
:0D001E0001C002C003C004C005C006C00739
:10002B00052AE52A70020529641E45297007F52962
:10003B00F52A120739E553146019046003020454BE
:10004B001209CC120A4BE54C75F00AA4254DF51894
:03005B0002045448
:10005E00E52845277019F518F51974432519F87612
:10006E00FF0519E519700205186408451870EBE4D0
:10007E00FF120AB8E48F2EF52DF52CF52B7F011209
:10008E000AB8E48F32F531F530F52F7F02120AB837
:10009E00E48F36F535F534F5337F64FEFDFCAB3277
:1000AE00AA31A930A82F120487C004C005C006C00B
:1000BE0007E47F107E27FDFCAB2EAA2DA92CA82BC2
:1000CE00120487D003D002D001D000EF2BFFEE3AFE
:1000DE00FEED39FDEC38FCEF2536F558EE3535F5ED
:1000EE0057ED3534F556EC3533F555E5591205B562
:1000FE0001290B01500C01770D019E0E01C5150152
:10010E00EC16021317023918025F1F02852002AF88
:10011E002102E32203112B0000044EC3E5289408AC
:10012E00E5279400400302044EAF28745A2FF87648
:10013E000074452FF8A6370528E5287077052702A5
:10014E0002A9C3E5289408E5279400400302044E53
:10015E00AF28745A2FF8760174452FF8A638052863
:10016E00E528700205270202A9C3E5289408E527B1
:10017E009400400302044EAF28745A2FF87602748E
:10018E00452FF8A6390528E528700205270202A991
:10019E00C3E5289408E5279400400302044EAF28D7
:1001AE00745A2FF8760374452FF8A63A0528E528D9
:1001BE00700205270202A9C3E5289408E5279400DA
:1001CE00400302044EAF28745A2FF8760474452F5C
:1001DE00F8A63B0528E528700205270202A9C3E50B
:1001EE00289408E5279400400302044EAF28745A61
:1001FE002FF8760574452FF8A63C0528E5287002E1
:10020E0005270202A9C3E5289408E52794004003B8
:10021E0002044EAF28745A2FF8760674452FF8A6AE
:10022E003D0528E528700205278070C3E52894084F
:10023E00E5279400400302044EAF28745A2FF87637
:10024E000774452FF8A63E0528E52870020527807D
:10025E004AC3E5289408E5279400400302044EAFF4
:10026E0028745A2FF8760874452FF8A63F0528E50E
:10027E0028700205278024C3E5289408E5279400FA
:10028E00400302044EAF28745A2FF8760974452F96
:10029E00F8A6400528E5287002052775593702048F
:1002AE004E755302752700752800751800751900D4
:1002BE00AF19745A2FF876377544FF7543FF74459E
:1002CE002FF876FF0519E519700205186406451812
:1002DE0070DE02044E75270075280075180075191A
:1002EE0000AF19745A2FF876377544FF7543FF74B3
:1002FE00452FF876FF0519E51970020518640645B5
:03030E001870DE86
:10031100AF5AE4FCFDFE7BA07A867901F8120487CE
:10032100C004A905AA06AB07AF5B7E007C277D1040
:10033100120475E4FCFDD000EB2FFFEA3EFEED391F
:10034100FDEC38FCC004A905AA06AB07AF5C7E0032
:100351007C037DE8120475E4FCFDD000EB2FFFEA7D
:100361003EFEED39FDEC38FCA804A905AA06AB0751
:10037100E55D75F064A4FFE4FCFDEB2FFFEA35F0C9
:10038100FEED39FDEC38FCA804A905AA06AB07E58A
:100391005E75F00AA4FFE4FCFDEB2FFBEA35F0FAF1
:1003A100ED39F9EC38F8E4FEEB255FFFEE3AFEEDAE
:1003B10039FDEC388F1D8E1C8D1BF51AAF58AE57C9
:1003C100AD56AC55AB1DAA1CA91BF8C31205A470F0
:1003D10049F518F5197544FF7543FF74452519F85A
:1003E10076FF0519E519700205186406451870E5D0
:1003F100D201120B810526E5267002052564F470F1
:1004010004E52564017046F525F526F51DF51CF575
:100411001BF51AC201120B81803375270075280064
:10042100C201120B81751800751900AF19745A2F8A
:10043100F876377544FF7543FF74452FF876FF054D
:0D04410019E519700205186406451870DEF3
:06044E00AF418F448F4313
:0604540075530112098836
:10045A00D007D006D005D004D003D002D001D000F6
:0B046A00D0D0D082D083D0F0D0E032A0
:1009CC00E4FD7F8E120BAD7F85120A828F4B7F83E5
:1009DC00120A828F527F81120A828F54E54BC454C3
:1009EC000FF54CE54B540FF54DE552C4540FF54E35
:1009FC00E552540FF54FE554C4540FF550E55454DB
:040A0C000FF551226F
:100AE800E4FD7F8E120BADE54CC454F0254DFD7F1F
:100AF80084120BADE54EC454F0254FFD7F82120BD6
:0E0B0800ADE550C454F02551FD7F80020BADC9
:100A4B00AF418F488F457437254CF8E6F543743723
:100A5B00254DF8E6F5447437254EF8E6F546743720
:100A6B00254FF8E6F54774372550F8E6F549743706
:070A7B002551F8E6F54A22BF
:020AB8008F1E8F
:100ABA00120A107FA01208B2120944AF1E1208B21D
:100ACA00120944120A107FA11208B212094412082C
:0D0ADA00FD8F1FC201120857120B61AF1FE4
:010AE70022EC
:100B3F008F168D17120A107FA01208B2120944AF38
:100B4F00161208B2120944AF171208B21209440262
:020B5F000B6128
:100B810030010A75A0A0758020E4F5A02275A0A00F
:060B9100E4F580F5A0224E
:100B970030000A75A0A0758040E4F5A02275A0A0DA
:060BA700E4F580F5A02238
:1007D7000205DBE493A3F8E493A34003F68001F258
:1007E70008DFF48029E493A3F85407240CC8C33323
:1007F700C4540F4420C8834004F456800146F6DFF2
:10080700E4800B0102040810204080900B16E47E60
:10081700019360BCA3FF543F30E509541FFEE493E6
:10082700A360010ECF54C025E060A840B8E493A3AD
:10083700FAE493A3F8E493A3C8C582C8CAC583CAD8
:10084700F0A3C8C582C8CAC583CADFE9DEE780BE90
:010B3E0000B6
:10047500EF8DF0A4A8F0CF8CF0A428CE8DF0A42E9B
:02048500FE2255
:10048700E88FF0A4CC8BF0A42CFCE98EF0A42CFC14
:100497008AF0EDA42CFCEA8EF0A4CDA8F08BF0A492
:1004A7002DCC3825F0FDE98FF0A42CCD35F0FCEBF1
:1004B7008EF0A4FEA9F0EB8FF0A4CFC5F02ECD39B6
:0F04C700FEE43CFCEAA42DCE35F0FDE43CFC2223
:1004D60075F008758200EF2FFFEE33FECD33CDCCDD
:1004E60033CCC58233C5829BED9AEC99E582984060
:1004F6000CF582EE9BFEED9AFDEC99FC0FD5F0D63D
:10050600E4CEFBE4CDFAE4CCF9A88222B800C1B966
:100516000059BA002DEC8BF084CFCECDFCE5F0CBA4
:10052600F97818EF2FFFEE33FEED33FDEC33FCEBDD
:1005360033FB10D703994004EB99FB0FD8E5E4F998
:10054600FA227818EF2FFFEE33FEED33FDEC33FC85
:10055600C933C910D7059BE99A4007EC9BFCE99A79
:10056600F90FD8E0E4C9FAE4CCFB2275F010EF2FBE
:10057600FFEE33FEED33FDCC33CCC833C810D707BE
:100586009BEC9AE899400AED9BFDEC9AFCE899F8F9
:0E0596000FD5F0DAE4CDFBE4CCFAE4C8F9228C
:1005A400EB9FF5F0EA9E42F0E99D42F0E89C45F0AD
:0105B4002224
:1005B500D083D082F8E4937012740193700DA3A3D5
:1005C50093F8740193F5828883E4737402936860E9
:0605D500EFA3A3A380DFE9
:00000001FF
