:0300000002046493
:0C046400787FE4F6D8FD7581400204ABFF
:1005A7000835FFFFFFFFFFFFFFFF0B2AC0F9A4B0CD
:0705B700999282F88090BFC9
:10056800E5A0541F44A0F5A0C286C28453A01FE48E
:10057800F589758CFC758A66D28CD2A9D2AF120126
:030588003280FBC3
:03000B00020026CA
:10002600C0E0C0F0C083C082C0D075D000C000C0A0
:0D00360001C002C003C004C005C006C00721
:100043000523E523B41E067523001203D2E53F14EE
:1000530060181460491470030200E1240360030272
:0A00630000E6AF40E4FCFDFE802F34
:10006D000522E52270020521AE21FFEE3395E0FD5C
:10007D00FCE47BFF7AFFF9F8C31203217009F52127
:10008D00F5227F431200037F807E257D007C0012C8
:02009D00033727
:10009F008040E52975F00AA4FFAEF0E4FCFD1203E1
:1000AF0037E540B42112E529C39401400BE52994AB
:1000BF000950057540370529E540B42213E529D3CA
:1000CF009401400CE529D394095005754037152943
:1000DF0080001205398003753F000525E525B529F8
:1000EF000EE5A0541F4480F5A07580FF53A01FE5B7
:1000FF0025B40A11752500E5A0541F4480F5A0759D
:08010F00800053A01F1204F050
:10011700D007D006D005D004D003D002D001D0003C
:0B012700D0D0D082D083D0F0D0E032E6
:080337008F0D8E0C8D0B8C0A5A
:10033F00E4F516F517E47B0AFAF9F8AF0DAE0CAD3C
:10034F000BAC0A12028FAF03C374079517240EF874
:10035F00A607AF0DAE0CAD0BAC0AE47B0AFAF9F8A9
:10036F0012028F8F0D8E0C8D0B8C0A0517E51770EF
:10037F000205166408451670BCE4F516F517AF179D
:10038F00740E2FF8E6701474352FF876FF0517E505
:10039F0017700205166408451670E3C3E517940835
:1003AF00E5169400501CAF17740E2FF8E6242AF8A8
:1003BF00E6FE74352FF8A6060517E51770DD05164E
:0203CF0080D9D3
:0103D1002209
:1004F000E5A0541F44E0F5A07580FF53A01FE5A0C0
:10050000541F44C0F5A0AF267401A807088002C399
:1005100033D8FCF58053A01FE5A0541F44E0F5A09C
:1005200074352526F8E6F58053A01FE526C3940709
:080530005003052622E4F52624
:0105380022A0
:1003D200D2B3D2B2D2B1D2B0C2B4C2B5C2C2C2C416
:1003E20020B0047E01801720B1047E02801020B26A
:1003F200047E03800920B3047E0480027E05D2B409
:10040200D2B5D2C2D2C4C2B3C2B2C2B1C2B020C487
:10041200047F01801720C2047F02801020B5047F70
:1004220003800920B4047F0480027F05EE75F00A80
:10043200A42FF528E52714601114601B2402701EF6
:10044200E5286437601B75270122E5286437600EB2
:1004520085284075270222E528B437058000E4F597
:010462002772
:010463002276
:10053900E54024F4601114601514601C2403701E36
:10054900754037E4F53F22754037753F0122754004
:0F05590037753F0275290322754037753F03221E
:1005BF00759850438E40538EFE758BE0758DFEC23D
:0605CF00ABD28ED2AC227B
:080003008F993099FDC299228A
:10058B0012023A6010F5993099FDC299740129F95C
:0B059B00E43AFA80EB209803E4F599A5
:0105A6002232
:030023000205EAE9
:0105EA0032DE
:10000E00E5A0541F44A0F5A0300004D2868002C2A1
:05001E008653A01F2223
:1005D500E5A0541F44A0F5A0300104D2848002C2D6
:0505E5008453A01F2259
:100132007F087E00D2900000000000000000000056
:1001420000000000000000000000000000000000AD
:10015200000000000000000000000000000000009D
:10016200000000000000000000000000000000008D
:10017200000000000000000000000000000000007D
:10018200000000000000000000000000000000006D
:10019200000000000000000000000000000000005D
:1001A200000000000000000000000000000000C28B
:1001B20090000000000000000000000000000000AD
:1001C200000000000000000000000000000000002D
:1001D200000000000000000000000000000000001D
:1001E200000000000000000000000000000000000D
:1001F20000000000000000000000000000000000FD
:1002020000000000000000000000000000000000EC
:1002120000000000000000000000000000000000DC
:1002220000000000000000000000EF1FAC0670019B
:070232001E4C6003020136BF
:0102390022A2
:10047000020568E493A3F8E493A34003F68001F235
:1004800008DFF48029E493A3F85407240CC8C3338D
:10049000C4540F4420C8834004F456800146F6DF5C
:1004A000E4800B01020408102040809005A7E47E40
:1004B000019360BCA3FF543F30E509541FFEE49351
:1004C000A360010ECF54C025E060A840B8E493A318
:1004D000FAE493A3F8E493A3C8C582C8CAC583CA43
:1004E000F0A3C8C582C8CAC583CADFE9DEE780BEFB
:0105BE00003C
:10023A00BB010689828A83E0225002E722BBFE02C2
:09024A00E32289828A83E49322F5
:1002530075F008758200EF2FFFEE33FECD33CDCC62
:1002630033CCC58233C5829BED9AEC99E5829840E5
:100273000CF582EE9BFEED9AFDEC99FC0FD5F0D6C2
:10028300E4CEFBE4CDFAE4CCF9A88222B800C1B9EC
:100293000059BA002DEC8BF084CFCECDFCE5F0CB2A
:1002A300F97818EF2FFFEE33FEED33FDEC33FCEB63
:1002B30033FB10D703994004EB99FB0FD8E5E4F91E
:1002C300FA227818EF2FFFEE33FEED33FDEC33FC0B
:1002D300C933C910D7059BE99A4007EC9BFCE99AFF
:1002E300F90FD8E0E4C9FAE4CCFB2275F010EF2F44
:1002F300FFEE33FEED33FDCC33CCC833C810D70744
:100303009BEC9AE899400AED9BFDEC9AFCE899F87E
:0E0313000FD5F0DAE4CDFBE4CCFAE4C8F92211
:10032100EB9FF5F0EA9E42F0E99D42F0EC6480C853
:0603310064809845F022F3
:00000001FF
