:0300000002059363
:0C059300787FE4F6D8FD75813E0205DAA1
:100003000833FFFFFFFFFFFFFFFF0B28C0F9A4B07A
:07001300999282F88090BF72
:10072B001207D37F311207E4E5A0541F44A0F5A0B4
:10073B00C286C28453A01FE4F589758DFC758B6648
:10074B00438F07D28ED2ABD2AF753C03753DE8F524
:06075B002675273C80FE1C
:03001B000203805D
:10038000C0E0C0F0C083C082C0D075D000C000C043
:0D03900001C002C003C004C005C006C007C4
:10039D000521E521B41E06752100120501E53B146A
:1003AD00601814601714601224036003020445AF33
:1003BD003EE4FCFDFE12046680798077AD27AF3DEB
:1003CD00AE3C12061FAE3CAF3DE4FCFD120466E5EB
:1003DD003EB41F0E753E377432253DF53DE4353C78
:1003ED00F53CE53EB4200F753E3774CE253DF53D09
:1003FD0074FF353CF53CE53EB42119D3E527945FF8
:10040D00E5269400500E753E3774052527F527E433
:10041D003526F526E53EB4221AC3E5279405E526D3
:10042D009400400F753E3774FB2527F52774FF3573
:0E043D0026F5261207618003753B0012069E0D
:10044B00D007D006D005D004D003D002D001D00005
:0B045B00D0D0D082D083D0F0D0E032AF
:080466008F0D8E0C8D0B8C0A2A
:10046E00E4F516F517E47B0AFAF9F8AF0DAE0CAD0C
:10047E000BAC0A1202E0AF03C374079517240EF8F3
:10048E00A607AF0DAE0CAD0BAC0AE47B0AFAF9F879
:10049E001202E08F0D8E0C8D0B8C0A0517E517706E
:1004AE000205166408451670BCE4F516F517AF176D
:1004BE00740E2FF8E6701474332FF876FF0517E5D7
:1004CE0017700205166408451670E3C3E517940805
:1004DE00E5169400501CAF17740E2FF8E62428F87A
:1004EE00E6FE74332FF8A6060517E51770DD051620
:0204FE0080D9A3
:0105000022D8
:10069E00E5A0541F44E0F5A07580FF53A01FE5A010
:1006AE00541F44C0F5A0AF237401A807088002C3ED
:1006BE0033D8FCF58053A01FE5A0541F44E0F5A0ED
:1006CE0074332523F8E6F58053A01FE523C3940762
:0806DE005003052322E4F5237B
:0106E60022F1
:10050100D2B3D2B2D2B1D2B0C2B4C2B5C2C2C2C4E5
:1005110020B0047E01801720B1047E02801020B239
:10052100047E03800920B3047E0480027E05D2B4D8
:10053100D2B5D2C2D2C4C2B3C2B2C2B1C2B020C457
:10054100047F01801720C2047F02801020B5047F40
:1005510003800920B4047F0480027F05EE75F00A50
:10056100A42FF525E52414601114601B2402701ECC
:10057100E5256437601B75240122E5256437600E8B
:1005810085253E75240222E525B437058000E4F572
:010591002445
:010592002246
:10076100E53E24F460111460151460192403701B14
:10077100753E37E4F53B22753E37753B0122753EE8
:0C07810037753B0222753E37753B0322A2
:1007D30075985075D7E075D6FE438E15D2AFD2AC5F
:0107E30022F3
:0807E4008F993099FDC29922A2
:10078D0012028B6010F5993099FDC299740129F907
:0B079D00E43AFA80EB209803E4F599A1
:0107A800222E
:0300230002001EBA
:01001E0032AF
:10061F008E0A8F0B8D0CE50AFBC374FF9BFF74FFD3
:10062F009400FEE49400FDE49400FCE4FB7A01F9ED
:10063F00F81206E78F8CE50AFBC374FF9BFF74FF6C
:10064F009400FEE49400FDE49400FCE4FB7A01F9CD
:10065F00F81206E7AF038F8AD28C75D904D2DE75F4
:10066F00DA42E4F5F2C37464950CFDE49400FCE403
:10067F001201D1E4FBFA79C8784212012FE4FBFA98
:0F068F00797F784312002612020A8FEA8FFA222F
:1007A900E5A0541F44A0F5A0300004D2868002C2FF
:0507B9008653A01F2281
:1007BE00E5A0541F44A0F5A0300104D2848002C2EB
:0507CE008453A01F226E
:10002600EC4D6011E8497017ED33EC3304600DE4D4
:10003600FCFFFEFD22E933E8330470F80202761273
:10004600024158046009E4CC248150062850090274
:10005600028028400302027DC0E0EB4A7044B9806A
:1000660006D0E0FB02026CEF4E701CBD8008EBFF71
:10007600EAFEE9FD80EBE98DF0A4FEE5F002010F52
:10008600E9CDF9EAFEEBFFEF89F0A4FCE5F0CE89B5
:10009600F0A42EFFE435F0CD89F0A42DFEE435F072
:1000A6008067EF4E7005BD80D780C3EF8BF0A4ACA0
:1000B600F0EE8BF0A42CFCE435F0F8EF8AF0A42CDB
:1000C600E5F038FCE433CB8DF0A42CFCE5F03BF8EE
:1000D600EE8AF0A42CFCE5F038F8E433CF89F0A4DE
:1000E6002CFCE5F038CF3400CE89F0A42FFFE5F0E4
:1000F6003EFEE433C98DF0A42EFEE5F039CD8AF03C
:10010600A42FFFE5F03EFEE43DFD33D0E0FB5007B3
:100116000BBB000F020280EC2CFCEF33FFEE33FE2C
:06012600ED33FD0202585A
:10012C00020280EC5D046005E8590470030202765B
:10013C00120241580460F6EC4860F2EC7004FDFECB
:10014C00FF22C860DB2481C85009C39860025006A6
:10015C0002027D9850CAF582E9294B4A7005AB82A0
:10016C0002026C75F0007C1A7880C3EF9BEE9AED5E
:10017C0099400DC3EF9BFFEE9AFEED99FDE842F01E
:10018C00DC23ACF0D0E0FFD0E0FED0E0FDAB822071
:10019C00E7101BEB60BAEC2CFCEF33FFEE33FEEDFB
:1001AC0033FD020258E803F830E705C0F075F000A3
:1001BC00EF2FFFEE33FEED33FD40B830E7C280AADF
:1001CC0075F020800E75F010800575F0087D007EAE
:1001DC00007F003392D530D503120372EC334010FC
:1001EC00EF33FFEE33FEED33FDEC33FCD5F0ED22B7
:0E01FC00E5F0247EA2D513CC92E7CDCEFF22F3
:10020A00EDD2E7CD33EC3392D524814006E4FFFEEC
:10021A00FDFC22FCE4CFCECDCC24E0501174FF804B
:10022A00EDC3CC13CCCD13CDCE13CECF13CF0470E8
:07023A00F030D5DE02037273
:10024100E9D2E7C933E833F892D5EDD2E7CD33EC03
:0702510033FC5002B2D5227C
:10025800EC30E7100FBF000C0EBE00080DBD000407
:100268000BEB6014A2D5EB13FCED92E7FD2274FFB3
:10027800FCFDFEFF22E480F8A2D574FF13FC7D800C
:03028800E480EF20
:10059F0002072BE493A3F8E493A34003F68001F240
:1005AF0008DFF48029E493A3F85407240CC8C3335D
:1005BF00C4540F4420C8834004F456800146F6DF2C
:1005CF00E4800B0102040810204080900003E47EB9
:1005DF00019360BCA3FF543F30E509541FFEE49321
:1005EF00A360010ECF54C025E060A840B8E493A3E8
:1005FF00FAE493A3F8E493A3C8C582C8CAC583CA13
:10060F00F0A3C8C582C8CAC583CADFE9DEE780BECA
:01001A0000E5
:10028B00BB010689828A83E0225002E722BBFE0271
:09029B00E32289828A83E49322A4
:1002A40075F008758200EF2FFFEE33FECD33CDCC11
:1002B40033CCC58233C5829BED9AEC99E582984094
:1002C4000CF582EE9BFEED9AFDEC99FC0FD5F0D671
:1002D400E4CEFBE4CDFAE4CCF9A88222B800C1B99B
:1002E4000059BA002DEC8BF084CFCECDFCE5F0CBD9
:1002F400F97818EF2FFFEE33FEED33FDEC33FCEB12
:1003040033FB10D703994004EB99FB0FD8E5E4F9CC
:10031400FA227818EF2FFFEE33FEED33FDEC33FCB9
:10032400C933C910D7059BE99A4007EC9BFCE99AAD
:10033400F90FD8E0E4C9FAE4CCFB2275F010EF2FF2
:10034400FFEE33FEED33FDCC33CCC833C810D707F2
:100354009BEC9AE899400AED9BFDEC9AFCE899F82D
:0E0364000FD5F0DAE4CDFBE4CCFAE4C8F922C0
:1006E700C2D5E830E70FB2D5E4C39BFBE49AFAE43E
:1006F70099F9E498F8EC30E717B2D512071D120202
:10070700E0E4C39BFBE49AFAE499F9E498F88003E0
:100717001202E030D50DE4C39FFFE49EFEE49DFD89
:04072700E49CFC2230
:0E037200C3E49FFFE49EFEE49DFDE49CFC229C
:00000001FF
